{
  "transactions": [
    {
      "hash": "0xfa9c5328d7bd3c69b4373917ee89330a6091647bf4a4217d4f1ea4de771b9631",
      "transactionType": "CALL",
      "contractName": null,
      "contractAddress": "0x7af0281a00f50f3F36065711e6Cc07F4c863db2D",
      "function": "flip(bool)",
      "arguments": [
        "true"
      ],
      "transaction": {
        "type": "0x02",
        "from": "0x255e26065387de09436db52acc4ae2a3cd11e854",
        "to": "0x7af0281a00f50f3f36065711e6cc07f4c863db2d",
        "gas": "0xb757",
        "value": "0x0",
        "data": "0x1d263f670000000000000000000000000000000000000000000000000000000000000001",
        "nonce": "0x52",
        "accessList": []
      },
      "additionalContracts": [],
      "isFixedGasLimit": false
    }
  ],
  "receipts": [
    {
      "transactionHash": "0xfa9c5328d7bd3c69b4373917ee89330a6091647bf4a4217d4f1ea4de771b9631",
      "transactionIndex": "0x3",
      "blockHash": "0x8566792b370f19a2fe6d8e498a378eec8c2bcddcba6341748cd860e8333ee9e7",
      "blockNumber": "0x569b94",
      "from": "0x255e26065387de09436DB52AcC4aE2a3CD11E854",
      "to": "0x7af0281a00f50f3F36065711e6Cc07F4c863db2D",
      "cumulativeGasUsed": "0x29afc",
      "gasUsed": "0x71b2",
      "contractAddress": null,
      "logs": [],
      "status": "0x1",
      "logsBloom": "0x00000000000000000000000000000000000000000000000000000000000000000000000000000000000000000000000000000000000000000000000000000000000000000000000000000000000000000000000000000000000000000000000000000000000000000000000000000000000000000000000000000000000000000000000000000000000000000000000000000000000000000000000000000000000000000000000000000000000000000000000000000000000000000000000000000000000000000000000000000000000000000000000000000000000000000000000000000000000000000000000000000000000000000000000000000000",
      "type": "0x2",
      "effectiveGasPrice": "0xb7f082bc"
    }
  ],
  "libraries": [],
  "pending": [],
  "returns": {},
  "timestamp": 1712851226,
  "chain": 11155111,
  "multi": false,
  "commit": "332745f"
}