{
  "transactions": [
    {
      "hash": "0xcf3033d5c57caa0edc96d0081ca69f625f3d0443f1916c10dea33c91301bbe08",
      "transactionType": "CALL",
      "contractName": null,
      "contractAddress": "0x7af0281a00f50f3F36065711e6Cc07F4c863db2D",
      "function": "flip(bool)",
      "arguments": [
        "false"
      ],
      "transaction": {
        "type": "0x02",
        "from": "0x255e26065387de09436db52acc4ae2a3cd11e854",
        "to": "0x7af0281a00f50f3f36065711e6cc07f4c863db2d",
        "gas": "0x11398",
        "value": "0x0",
        "data": "0x1d263f670000000000000000000000000000000000000000000000000000000000000000",
        "nonce": "0x4d",
        "accessList": []
      },
      "additionalContracts": [],
      "isFixedGasLimit": false
    }
  ],
  "receipts": [
    {
      "transactionHash": "0xcf3033d5c57caa0edc96d0081ca69f625f3d0443f1916c10dea33c91301bbe08",
      "transactionIndex": "0x4",
      "blockHash": "0x2b104365b2f4014c60c291fd5810534ecd908d48ed6c51107537c4dd176426bf",
      "blockNumber": "0x569b7a",
      "from": "0x255e26065387de09436DB52AcC4aE2a3CD11E854",
      "to": "0x7af0281a00f50f3F36065711e6Cc07F4c863db2D",
      "cumulativeGasUsed": "0x1c190",
      "gasUsed": "0x796c",
      "contractAddress": null,
      "logs": [],
      "status": "0x1",
      "logsBloom": "0x00000000000000000000000000000000000000000000000000000000000000000000000000000000000000000000000000000000000000000000000000000000000000000000000000000000000000000000000000000000000000000000000000000000000000000000000000000000000000000000000000000000000000000000000000000000000000000000000000000000000000000000000000000000000000000000000000000000000000000000000000000000000000000000000000000000000000000000000000000000000000000000000000000000000000000000000000000000000000000000000000000000000000000000000000000000",
      "type": "0x2",
      "effectiveGasPrice": "0xbaf39d9c"
    }
  ],
  "libraries": [],
  "pending": [],
  "returns": {},
  "timestamp": 1712850902,
  "chain": 11155111,
  "multi": false,
  "commit": "332745f"
}