{
  "transactions": [
    {
      "hash": "0x81531350995eddeed4d32a995f46e3237c5a3822990d814bfb8082f6d715f8b7",
      "transactionType": "CALL",
      "contractName": null,
      "contractAddress": "0x7af0281a00f50f3F36065711e6Cc07F4c863db2D",
      "function": "flip(bool)",
      "arguments": [
        "false"
      ],
      "transaction": {
        "type": "0x02",
        "from": "0x255e26065387de09436db52acc4ae2a3cd11e854",
        "to": "0x7af0281a00f50f3f36065711e6cc07f4c863db2d",
        "gas": "0xc21d",
        "value": "0x0",
        "data": "0x1d263f670000000000000000000000000000000000000000000000000000000000000000",
        "nonce": "0x50",
        "accessList": []
      },
      "additionalContracts": [],
      "isFixedGasLimit": false
    }
  ],
  "receipts": [],
  "libraries": [],
  "pending": [
    "0x81531350995eddeed4d32a995f46e3237c5a3822990d814bfb8082f6d715f8b7"
  ],
  "returns": {},
  "timestamp": 1712851174,
  "chain": 11155111,
  "multi": false,
  "commit": "332745f"
}