{
  "transactions": [
    {
      "hash": "0xcb3a61b608d2e6588c1599f1bf513c4319af3676fd403ea1dc15788bd4446171",
      "transactionType": "CALL",
      "contractName": null,
      "contractAddress": "0x7af0281a00f50f3F36065711e6Cc07F4c863db2D",
      "function": "flip(bool)",
      "arguments": [
        "true"
      ],
      "transaction": {
        "type": "0x02",
        "from": "0x255e26065387de09436db52acc4ae2a3cd11e854",
        "to": "0x7af0281a00f50f3f36065711e6cc07f4c863db2d",
        "gas": "0xb757",
        "value": "0x0",
        "data": "0x1d263f670000000000000000000000000000000000000000000000000000000000000001",
        "nonce": "0x2d",
        "accessList": []
      },
      "additionalContracts": [],
      "isFixedGasLimit": false
    }
  ],
  "receipts": [],
  "libraries": [],
  "pending": [
    "0xcb3a61b608d2e6588c1599f1bf513c4319af3676fd403ea1dc15788bd4446171"
  ],
  "returns": {},
  "timestamp": 1712848825,
  "chain": 11155111,
  "multi": false,
  "commit": "332745f"
}