{
  "transactions": [
    {
      "hash": "0xbd0c36f25eb079fe642c5017efa3e2da56bda1619eb3bc8b8f8d0517f3b4c2a7",
      "transactionType": "CALL",
      "contractName": null,
      "contractAddress": "0x7af0281a00f50f3F36065711e6Cc07F4c863db2D",
      "function": "flip(bool)",
      "arguments": [
        "true"
      ],
      "transaction": {
        "type": "0x02",
        "from": "0x255e26065387de09436db52acc4ae2a3cd11e854",
        "to": "0x7af0281a00f50f3f36065711e6cc07f4c863db2d",
        "gas": "0x16fde",
        "value": "0x0",
        "data": "0x1d263f670000000000000000000000000000000000000000000000000000000000000001",
        "nonce": "0x2b",
        "accessList": []
      },
      "additionalContracts": [],
      "isFixedGasLimit": false
    }
  ],
  "receipts": [
    {
      "transactionHash": "0xbd0c36f25eb079fe642c5017efa3e2da56bda1619eb3bc8b8f8d0517f3b4c2a7",
      "transactionIndex": "0x15",
      "blockHash": "0x654080a3d68c3b7ac594a6c6b86d7d1431f8b5d731d54d6b2c7f5445d71f3332",
      "blockNumber": "0x569ac9",
      "from": "0x255e26065387de09436DB52AcC4aE2a3CD11E854",
      "to": "0x7af0281a00f50f3F36065711e6Cc07F4c863db2D",
      "cumulativeGasUsed": "0xa3671",
      "gasUsed": "0x10a55",
      "contractAddress": null,
      "logs": [],
      "status": "0x1",
      "logsBloom": "0x00000000000000000000000000000000000000000000000000000000000000000000000000000000000000000000000000000000000000000000000000000000000000000000000000000000000000000000000000000000000000000000000000000000000000000000000000000000000000000000000000000000000000000000000000000000000000000000000000000000000000000000000000000000000000000000000000000000000000000000000000000000000000000000000000000000000000000000000000000000000000000000000000000000000000000000000000000000000000000000000000000000000000000000000000000000",
      "type": "0x2",
      "effectiveGasPrice": "0xec9e0109"
    }
  ],
  "libraries": [],
  "pending": [],
  "returns": {},
  "timestamp": 1712848696,
  "chain": 11155111,
  "multi": false,
  "commit": "332745f"
}