{
  "transactions": [
    {
      "hash": "0xc0330718e46a8cced2e844145d203fcc77989002925843b7b14e9cbe687d8f8f",
      "transactionType": "CALL",
      "contractName": null,
      "contractAddress": "0x7af0281a00f50f3F36065711e6Cc07F4c863db2D",
      "function": "flip(bool)",
      "arguments": [
        "true"
      ],
      "transaction": {
        "type": "0x02",
        "from": "0x255e26065387de09436db52acc4ae2a3cd11e854",
        "to": "0x7af0281a00f50f3f36065711e6cc07f4c863db2d",
        "gas": "0xb757",
        "value": "0x0",
        "data": "0x1d263f670000000000000000000000000000000000000000000000000000000000000001",
        "nonce": "0x3c",
        "accessList": []
      },
      "additionalContracts": [],
      "isFixedGasLimit": false
    }
  ],
  "receipts": [
    {
      "transactionHash": "0xc0330718e46a8cced2e844145d203fcc77989002925843b7b14e9cbe687d8f8f",
      "transactionIndex": "0xc",
      "blockHash": "0x03a597b3e92953742b42e9d0c41903040c5272079a0c58b4fcb87a7c9333ee6f",
      "blockNumber": "0x569b20",
      "from": "0x255e26065387de09436DB52AcC4aE2a3CD11E854",
      "to": "0x7af0281a00f50f3F36065711e6Cc07F4c863db2D",
      "cumulativeGasUsed": "0x44a12",
      "gasUsed": "0x71b2",
      "contractAddress": null,
      "logs": [],
      "status": "0x1",
      "logsBloom": "0x00000000000000000000000000000000000000000000000000000000000000000000000000000000000000000000000000000000000000000000000000000000000000000000000000000000000000000000000000000000000000000000000000000000000000000000000000000000000000000000000000000000000000000000000000000000000000000000000000000000000000000000000000000000000000000000000000000000000000000000000000000000000000000000000000000000000000000000000000000000000000000000000000000000000000000000000000000000000000000000000000000000000000000000000000000000",
      "type": "0x2",
      "effectiveGasPrice": "0xcae2bd54"
    }
  ],
  "libraries": [],
  "pending": [],
  "returns": {},
  "timestamp": 1712849788,
  "chain": 11155111,
  "multi": false,
  "commit": "332745f"
}