{
  "transactions": [
    {
      "hash": "0x02d6f7b313e145ffccd041280799b6f9b9775855652f9474f4308ee29509ea3b",
      "transactionType": "CALL",
      "contractName": null,
      "contractAddress": "0x7af0281a00f50f3F36065711e6Cc07F4c863db2D",
      "function": "flip(bool)",
      "arguments": [
        "true"
      ],
      "transaction": {
        "type": "0x02",
        "from": "0x255e26065387de09436db52acc4ae2a3cd11e854",
        "to": "0x7af0281a00f50f3f36065711e6cc07f4c863db2d",
        "gas": "0x123d1",
        "value": "0x0",
        "data": "0x1d263f670000000000000000000000000000000000000000000000000000000000000001",
        "nonce": "0x34",
        "accessList": []
      },
      "additionalContracts": [],
      "isFixedGasLimit": false
    }
  ],
  "receipts": [
    {
      "transactionHash": "0x02d6f7b313e145ffccd041280799b6f9b9775855652f9474f4308ee29509ea3b",
      "transactionIndex": "0x18",
      "blockHash": "0x86591cb3b1f34bfe661b4efd0fee26ac84152829484f880c0df21dd92b230b10",
      "blockNumber": "0x569afa",
      "from": "0x255e26065387de09436DB52AcC4aE2a3CD11E854",
      "to": "0x7af0281a00f50f3F36065711e6Cc07F4c863db2D",
      "cumulativeGasUsed": "0x9b9a0",
      "gasUsed": "0xc789",
      "contractAddress": null,
      "logs": [],
      "status": "0x1",
      "logsBloom": "0x00000000000000000000000000000000000000000000000000000000000000000000000000000000000000000000000000000000000000000000000000000000000000000000000000000000000000000000000000000000000000000000000000000000000000000000000000000000000000000000000000000000000000000000000000000000000000000000000000000000000000000000000000000000000000000000000000000000000000000000000000000000000000000000000000000000000000000000000000000000000000000000000000000000000000000000000000000000000000000000000000000000000000000000000000000000",
      "type": "0x2",
      "effectiveGasPrice": "0xcf6dad1d"
    }
  ],
  "libraries": [],
  "pending": [],
  "returns": {},
  "timestamp": 1712849295,
  "chain": 11155111,
  "multi": false,
  "commit": "332745f"
}