{
  "transactions": [
    {
      "hash": "0x24fe49fd38f2479f1e509b528cae427f935ac4d6ac4cc61c6df75c9ec63018d3",
      "transactionType": "CALL",
      "contractName": null,
      "contractAddress": "0x7af0281a00f50f3F36065711e6Cc07F4c863db2D",
      "function": "flip(bool)",
      "arguments": [
        "true"
      ],
      "transaction": {
        "type": "0x02",
        "from": "0x255e26065387de09436db52acc4ae2a3cd11e854",
        "to": "0x7af0281a00f50f3f36065711e6cc07f4c863db2d",
        "gas": "0x123d1",
        "value": "0x0",
        "data": "0x1d263f670000000000000000000000000000000000000000000000000000000000000001",
        "nonce": "0x2e",
        "accessList": []
      },
      "additionalContracts": [],
      "isFixedGasLimit": false
    }
  ],
  "receipts": [
    {
      "transactionHash": "0x24fe49fd38f2479f1e509b528cae427f935ac4d6ac4cc61c6df75c9ec63018d3",
      "transactionIndex": "0x12",
      "blockHash": "0x97275b442b717cb26d3ea963b30c358fa48cdb5525200c9839a08d9e0128cfc5",
      "blockNumber": "0x569ad9",
      "from": "0x255e26065387de09436DB52AcC4aE2a3CD11E854",
      "to": "0x7af0281a00f50f3F36065711e6Cc07F4c863db2D",
      "cumulativeGasUsed": "0xa8546",
      "gasUsed": "0xc789",
      "contractAddress": null,
      "logs": [],
      "status": "0x1",
      "logsBloom": "0x00000000000000000000000000000000000000000000000000000000000000000000000000000000000000000000000000000000000000000000000000000000000000000000000000000000000000000000000000000000000000000000000000000000000000000000000000000000000000000000000000000000000000000000000000000000000000000000000000000000000000000000000000000000000000000000000000000000000000000000000000000000000000000000000000000000000000000000000000000000000000000000000000000000000000000000000000000000000000000000000000000000000000000000000000000000",
      "type": "0x2",
      "effectiveGasPrice": "0xda486516"
    }
  ],
  "libraries": [],
  "pending": [],
  "returns": {},
  "timestamp": 1712848886,
  "chain": 11155111,
  "multi": false,
  "commit": "332745f"
}