{
  "transactions": [
    {
      "hash": "0xfaa0f46154f44d8ed841e49680ca3c52110195835663727833ca244a269aa844",
      "transactionType": "CALL",
      "contractName": null,
      "contractAddress": "0x7af0281a00f50f3F36065711e6Cc07F4c863db2D",
      "function": "flip(bool)",
      "arguments": [
        "false"
      ],
      "transaction": {
        "type": "0x02",
        "from": "0x255e26065387de09436db52acc4ae2a3cd11e854",
        "to": "0x7af0281a00f50f3f36065711e6cc07f4c863db2d",
        "gas": "0xc21d",
        "value": "0x0",
        "data": "0x1d263f670000000000000000000000000000000000000000000000000000000000000000",
        "nonce": "0x2f",
        "accessList": []
      },
      "additionalContracts": [],
      "isFixedGasLimit": false
    }
  ],
  "receipts": [
    {
      "transactionHash": "0xfaa0f46154f44d8ed841e49680ca3c52110195835663727833ca244a269aa844",
      "transactionIndex": "0xe",
      "blockHash": "0x9f939381fff709d6d337bb745ede6ac47bc8cc5e71c16280661c171589115179",
      "blockNumber": "0x569ade",
      "from": "0x255e26065387de09436DB52AcC4aE2a3CD11E854",
      "to": "0x7af0281a00f50f3F36065711e6Cc07F4c863db2D",
      "cumulativeGasUsed": "0x69953",
      "gasUsed": "0x719c",
      "contractAddress": null,
      "logs": [],
      "status": "0x1",
      "logsBloom": "0x00000000000000000000000000000000000000000000000000000000000000000000000000000000000000000000000000000000000000000000000000000000000000000000000000000000000000000000000000000000000000000000000000000000000000000000000000000000000000000000000000000000000000000000000000000000000000000000000000000000000000000000000000000000000000000000000000000000000000000000000000000000000000000000000000000000000000000000000000000000000000000000000000000000000000000000000000000000000000000000000000000000000000000000000000000000",
      "type": "0x2",
      "effectiveGasPrice": "0xd9b1a2e1"
    }
  ],
  "libraries": [],
  "pending": [],
  "returns": {},
  "timestamp": 1712848946,
  "chain": 11155111,
  "multi": false,
  "commit": "332745f"
}