{
  "transactions": [
    {
      "hash": "0xcb3a61b608d2e6588c1599f1bf513c4319af3676fd403ea1dc15788bd4446171",
      "transactionType": "CALL",
      "contractName": null,
      "contractAddress": "0x7af0281a00f50f3F36065711e6Cc07F4c863db2D",
      "function": "flip(bool)",
      "arguments": [
        "true"
      ],
      "transaction": {
        "type": "0x02",
        "from": "0x255e26065387de09436db52acc4ae2a3cd11e854",
        "to": "0x7af0281a00f50f3f36065711e6cc07f4c863db2d",
        "gas": "0xb757",
        "value": "0x0",
        "data": "0x1d263f670000000000000000000000000000000000000000000000000000000000000001",
        "nonce": "0x2d",
        "accessList": []
      },
      "additionalContracts": [],
      "isFixedGasLimit": false
    }
  ],
  "receipts": [
    {
      "transactionHash": "0xcb3a61b608d2e6588c1599f1bf513c4319af3676fd403ea1dc15788bd4446171",
      "transactionIndex": "0x15",
      "blockHash": "0xe8819af5ca713f8010644f9eca8f6b41683523b82736e9fe680c397f60c2f3c9",
      "blockNumber": "0x569ad5",
      "from": "0x255e26065387de09436DB52AcC4aE2a3CD11E854",
      "to": "0x7af0281a00f50f3F36065711e6Cc07F4c863db2D",
      "cumulativeGasUsed": "0x77b390",
      "gasUsed": "0x71b2",
      "contractAddress": null,
      "logs": [],
      "status": "0x1",
      "logsBloom": "0x00000000000000000000000000000000000000000000000000000000000000000000000000000000000000000000000000000000000000000000000000000000000000000000000000000000000000000000000000000000000000000000000000000000000000000000000000000000000000000000000000000000000000000000000000000000000000000000000000000000000000000000000000000000000000000000000000000000000000000000000000000000000000000000000000000000000000000000000000000000000000000000000000000000000000000000000000000000000000000000000000000000000000000000000000000000",
      "type": "0x2",
      "effectiveGasPrice": "0xde1b6b1c"
    }
  ],
  "libraries": [],
  "pending": [],
  "returns": {},
  "timestamp": 1712848844,
  "chain": 11155111,
  "multi": false,
  "commit": "332745f"
}