{
  "transactions": [
    {
      "hash": "0xe644f6eef737930a6049ff6282b606401184b3f1989dfe195c617a8e301f780a",
      "transactionType": "CALL",
      "contractName": null,
      "contractAddress": "0x7af0281a00f50f3F36065711e6Cc07F4c863db2D",
      "function": "flip(bool)",
      "arguments": [
        "false"
      ],
      "transaction": {
        "type": "0x02",
        "from": "0x255e26065387de09436db52acc4ae2a3cd11e854",
        "to": "0x7af0281a00f50f3f36065711e6cc07f4c863db2d",
        "gas": "0x9ceb",
        "value": "0x0",
        "data": "0x1d263f670000000000000000000000000000000000000000000000000000000000000000",
        "nonce": "0x2c",
        "accessList": []
      },
      "additionalContracts": [],
      "isFixedGasLimit": false
    }
  ],
  "receipts": [],
  "libraries": [],
  "pending": [
    "0xe644f6eef737930a6049ff6282b606401184b3f1989dfe195c617a8e301f780a"
  ],
  "returns": {},
  "timestamp": 1712848722,
  "chain": 11155111,
  "multi": false,
  "commit": "332745f"
}