{
  "transactions": [
    {
      "hash": "0x90f9d59b14c6146dfac26204f7002dbf721cb0140c92ddf1f6d9a763f4256d9f",
      "transactionType": "CALL",
      "contractName": null,
      "contractAddress": "0x7af0281a00f50f3F36065711e6Cc07F4c863db2D",
      "function": "flip(bool)",
      "arguments": [
        "false"
      ],
      "transaction": {
        "type": "0x02",
        "from": "0x255e26065387de09436db52acc4ae2a3cd11e854",
        "to": "0x7af0281a00f50f3f36065711e6cc07f4c863db2d",
        "gas": "0x11398",
        "value": "0x0",
        "data": "0x1d263f670000000000000000000000000000000000000000000000000000000000000000",
        "nonce": "0x44",
        "accessList": []
      },
      "additionalContracts": [],
      "isFixedGasLimit": false
    }
  ],
  "receipts": [],
  "libraries": [],
  "pending": [
    "0x90f9d59b14c6146dfac26204f7002dbf721cb0140c92ddf1f6d9a763f4256d9f"
  ],
  "returns": {},
  "timestamp": 1712850288,
  "chain": 11155111,
  "multi": false,
  "commit": "332745f"
}