{
  "transactions": [
    {
      "hash": "0x37fcbfd70a443e926698118e2ef5f99893d47c7772e4c1494810e9232020567b",
      "transactionType": "CALL",
      "contractName": null,
      "contractAddress": "0x7af0281a00f50f3F36065711e6Cc07F4c863db2D",
      "function": "flip(bool)",
      "arguments": [
        "true"
      ],
      "transaction": {
        "type": "0x02",
        "from": "0x255e26065387de09436db52acc4ae2a3cd11e854",
        "to": "0x7af0281a00f50f3f36065711e6cc07f4c863db2d",
        "gas": "0x123d1",
        "value": "0x0",
        "data": "0x1d263f670000000000000000000000000000000000000000000000000000000000000001",
        "nonce": "0x45",
        "accessList": []
      },
      "additionalContracts": [],
      "isFixedGasLimit": false
    }
  ],
  "receipts": [
    {
      "transactionHash": "0x37fcbfd70a443e926698118e2ef5f99893d47c7772e4c1494810e9232020567b",
      "transactionIndex": "0x2",
      "blockHash": "0x8d4beb7b4d377aad392d47a15649876476d6eb363911cf3a120f53f27769ac56",
      "blockNumber": "0x569b54",
      "from": "0x255e26065387de09436DB52AcC4aE2a3CD11E854",
      "to": "0x7af0281a00f50f3F36065711e6Cc07F4c863db2D",
      "cumulativeGasUsed": "0x11d92",
      "gasUsed": "0x7982",
      "contractAddress": null,
      "logs": [],
      "status": "0x1",
      "logsBloom": "0x00000000000000000000000000000000000000000000000000000000000000000000000000000000000000000000000000000000000000000000000000000000000000000000000000000000000000000000000000000000000000000000000000000000000000000000000000000000000000000000000000000000000000000000000000000000000000000000000000000000000000000000000000000000000000000000000000000000000000000000000000000000000000000000000000000000000000000000000000000000000000000000000000000000000000000000000000000000000000000000000000000000000000000000000000000000",
      "type": "0x2",
      "effectiveGasPrice": "0xbdf0dad9"
    }
  ],
  "libraries": [],
  "pending": [],
  "returns": {},
  "timestamp": 1712850448,
  "chain": 11155111,
  "multi": false,
  "commit": "332745f"
}