{
  "transactions": [
    {
      "hash": "0xe644f6eef737930a6049ff6282b606401184b3f1989dfe195c617a8e301f780a",
      "transactionType": "CALL",
      "contractName": null,
      "contractAddress": "0x7af0281a00f50f3F36065711e6Cc07F4c863db2D",
      "function": "flip(bool)",
      "arguments": [
        "false"
      ],
      "transaction": {
        "type": "0x02",
        "from": "0x255e26065387de09436db52acc4ae2a3cd11e854",
        "to": "0x7af0281a00f50f3f36065711e6cc07f4c863db2d",
        "gas": "0x9ceb",
        "value": "0x0",
        "data": "0x1d263f670000000000000000000000000000000000000000000000000000000000000000",
        "nonce": "0x2c",
        "accessList": []
      },
      "additionalContracts": [],
      "isFixedGasLimit": false
    }
  ],
  "receipts": [
    {
      "transactionHash": "0xe644f6eef737930a6049ff6282b606401184b3f1989dfe195c617a8e301f780a",
      "transactionIndex": "0xc",
      "blockHash": "0xc95f8e641c0eb9756fc0ed2aa9b3da168fbdffc96e4647256537587b4a824657",
      "blockNumber": "0x569acc",
      "from": "0x255e26065387de09436DB52AcC4aE2a3CD11E854",
      "to": "0x7af0281a00f50f3F36065711e6Cc07F4c863db2D",
      "cumulativeGasUsed": "0x45d1b",
      "gasUsed": "0x84bb",
      "contractAddress": null,
      "logs": [],
      "status": "0x1",
      "logsBloom": "0x00000000000000000000000000000000000000000000000000000000000000000000000000000000000000000000000000000000000000000000000000000000000000000000000000000000000000000000000000000000000000000000000000000000000000000000000000000000000000000000000000000000000000000000000000000000000000000000000000000000000000000000000000000000000000000000000000000000000000000000000000000000000000000000000000000000000000000000000000000000000000000000000000000000000000000000000000000000000000000000000000000000000000000000000000000000",
      "type": "0x2",
      "effectiveGasPrice": "0xeab3ba44"
    }
  ],
  "libraries": [],
  "pending": [],
  "returns": {},
  "timestamp": 1712848729,
  "chain": 11155111,
  "multi": false,
  "commit": "332745f"
}