{
  "transactions": [
    {
      "hash": "0xac3b0399274992ebacc201f1823f4a81119bc0be916b51671892ac976a9f14bf",
      "transactionType": "CALL",
      "contractName": null,
      "contractAddress": "0x7af0281a00f50f3F36065711e6Cc07F4c863db2D",
      "function": "flip(bool)",
      "arguments": [
        "false"
      ],
      "transaction": {
        "type": "0x02",
        "from": "0x255e26065387de09436db52acc4ae2a3cd11e854",
        "to": "0x7af0281a00f50f3f36065711e6cc07f4c863db2d",
        "gas": "0x11398",
        "value": "0x0",
        "data": "0x1d263f670000000000000000000000000000000000000000000000000000000000000000",
        "nonce": "0x30",
        "accessList": []
      },
      "additionalContracts": [],
      "isFixedGasLimit": false
    }
  ],
  "receipts": [],
  "libraries": [],
  "pending": [
    "0xac3b0399274992ebacc201f1823f4a81119bc0be916b51671892ac976a9f14bf"
  ],
  "returns": {},
  "timestamp": 1712849123,
  "chain": 11155111,
  "multi": false,
  "commit": "332745f"
}