{
  "transactions": [
    {
      "hash": "0xbc96cf934e7cc1a52f5fe3ad1dc3aad37700ccfb97919f8551d4cb37b8ed0437",
      "transactionType": "CALL",
      "contractName": null,
      "contractAddress": "0x7af0281a00f50f3F36065711e6Cc07F4c863db2D",
      "function": "flip(bool)",
      "arguments": [
        "true"
      ],
      "transaction": {
        "type": "0x02",
        "from": "0x255e26065387de09436db52acc4ae2a3cd11e854",
        "to": "0x7af0281a00f50f3f36065711e6cc07f4c863db2d",
        "gas": "0x123d1",
        "value": "0x0",
        "data": "0x1d263f670000000000000000000000000000000000000000000000000000000000000001",
        "nonce": "0x32",
        "accessList": []
      },
      "additionalContracts": [],
      "isFixedGasLimit": false
    }
  ],
  "receipts": [
    {
      "transactionHash": "0xbc96cf934e7cc1a52f5fe3ad1dc3aad37700ccfb97919f8551d4cb37b8ed0437",
      "transactionIndex": "0xe",
      "blockHash": "0x1728ac29a7c493b62da8cbb43aeb36ac98080c042704ac4666eda9847bd5bfbd",
      "blockNumber": "0x569af4",
      "from": "0x255e26065387de09436DB52AcC4aE2a3CD11E854",
      "to": "0x7af0281a00f50f3F36065711e6Cc07F4c863db2D",
      "cumulativeGasUsed": "0x7ce15",
      "gasUsed": "0xc789",
      "contractAddress": null,
      "logs": [],
      "status": "0x1",
      "logsBloom": "0x00000000000000000000000000000000000000000000000000000000000000000000000000000000000000000000000000000000000000000000000000000000000000000000000000000000000000000000000000000000000000000000000000000000000000000000000000000000000000000000000000000000000000000000000000000000000000000000000000000000000000000000000000000000000000000000000000000000000000000000000000000000000000000000000000000000000000000000000000000000000000000000000000000000000000000000000000000000000000000000000000000000000000000000000000000000",
      "type": "0x2",
      "effectiveGasPrice": "0xd394a168"
    }
  ],
  "libraries": [],
  "pending": [],
  "returns": {},
  "timestamp": 1712849212,
  "chain": 11155111,
  "multi": false,
  "commit": "332745f"
}