{
  "transactions": [
    {
      "hash": "0xe22903290665271bdeae35f8023af2e4a3350a564c283bcaa02f02dafb2988a5",
      "transactionType": "CALL",
      "contractName": null,
      "contractAddress": "0x7af0281a00f50f3F36065711e6Cc07F4c863db2D",
      "function": "flip(bool)",
      "arguments": [
        "false"
      ],
      "transaction": {
        "type": "0x02",
        "from": "0x255e26065387de09436db52acc4ae2a3cd11e854",
        "to": "0x7af0281a00f50f3f36065711e6cc07f4c863db2d",
        "gas": "0x11398",
        "value": "0x0",
        "data": "0x1d263f670000000000000000000000000000000000000000000000000000000000000000",
        "nonce": "0x3d",
        "accessList": []
      },
      "additionalContracts": [],
      "isFixedGasLimit": false
    }
  ],
  "receipts": [
    {
      "transactionHash": "0xe22903290665271bdeae35f8023af2e4a3350a564c283bcaa02f02dafb2988a5",
      "transactionIndex": "0xd",
      "blockHash": "0x2b3db9104335ce0e3df36f213ab51be8efa3edf4cee5722c1cbb4c671bf9de37",
      "blockNumber": "0x569b23",
      "from": "0x255e26065387de09436DB52AcC4aE2a3CD11E854",
      "to": "0x7af0281a00f50f3F36065711e6Cc07F4c863db2D",
      "cumulativeGasUsed": "0x7ee32",
      "gasUsed": "0xc787",
      "contractAddress": null,
      "logs": [],
      "status": "0x1",
      "logsBloom": "0x00000000000000000000000000000000000000000000000000000000000000000000000000000000000000000000000000000000000000000000000000000000000000000000000000000000000000000000000000000000000000000000000000000000000000000000000000000000000000000000000000000000000000000000000000000000000000000000000000000000000000000000000000000000000000000000000000000000000000000000000000000000000000000000000000000000000000000000000000000000000000000000000000000000000000000000000000000000000000000000000000000000000000000000000000000000",
      "type": "0x2",
      "effectiveGasPrice": "0xcb4b856a"
    }
  ],
  "libraries": [],
  "pending": [],
  "returns": {},
  "timestamp": 1712849822,
  "chain": 11155111,
  "multi": false,
  "commit": "332745f"
}