{
  "transactions": [
    {
      "hash": "0x5218571781c2cc9302ef0d78ac193a3dd5652e77ad615e5c3ae99d8a0f1ce1c1",
      "transactionType": "CALL",
      "contractName": null,
      "contractAddress": "0x7af0281a00f50f3F36065711e6Cc07F4c863db2D",
      "function": "flip(bool)",
      "arguments": [
        "true"
      ],
      "transaction": {
        "type": "0x02",
        "from": "0x255e26065387de09436db52acc4ae2a3cd11e854",
        "to": "0x7af0281a00f50f3f36065711e6cc07f4c863db2d",
        "gas": "0xb757",
        "value": "0x0",
        "data": "0x1d263f670000000000000000000000000000000000000000000000000000000000000001",
        "nonce": "0x31",
        "accessList": []
      },
      "additionalContracts": [],
      "isFixedGasLimit": false
    }
  ],
  "receipts": [],
  "libraries": [],
  "pending": [
    "0x5218571781c2cc9302ef0d78ac193a3dd5652e77ad615e5c3ae99d8a0f1ce1c1"
  ],
  "returns": {},
  "timestamp": 1712849177,
  "chain": 11155111,
  "multi": false,
  "commit": "332745f"
}