{
  "transactions": [
    {
      "hash": "0xe0fa1c0a3898e0e56fb3d552315a74d2f3fbfdb1c38fb4ba0021d3c03f40af13",
      "transactionType": "CALL",
      "contractName": null,
      "contractAddress": "0x7af0281a00f50f3F36065711e6Cc07F4c863db2D",
      "function": "flip(bool)",
      "arguments": [
        "true"
      ],
      "transaction": {
        "type": "0x02",
        "from": "0x255e26065387de09436db52acc4ae2a3cd11e854",
        "to": "0x7af0281a00f50f3f36065711e6cc07f4c863db2d",
        "gas": "0x123d1",
        "value": "0x0",
        "data": "0x1d263f670000000000000000000000000000000000000000000000000000000000000001",
        "nonce": "0x3b",
        "accessList": []
      },
      "additionalContracts": [],
      "isFixedGasLimit": false
    }
  ],
  "receipts": [],
  "libraries": [],
  "pending": [
    "0xe0fa1c0a3898e0e56fb3d552315a74d2f3fbfdb1c38fb4ba0021d3c03f40af13"
  ],
  "returns": {},
  "timestamp": 1712849723,
  "chain": 11155111,
  "multi": false,
  "commit": "332745f"
}