{
  "transactions": [
    {
      "hash": "0x9a5e15956f99639c0e749d4d64db785a9280e34dc588212075fb357a1c1ce4cf",
      "transactionType": "CALL",
      "contractName": null,
      "contractAddress": "0x7af0281a00f50f3F36065711e6Cc07F4c863db2D",
      "function": "flip(bool)",
      "arguments": [
        "true"
      ],
      "transaction": {
        "type": "0x02",
        "from": "0x255e26065387de09436db52acc4ae2a3cd11e854",
        "to": "0x7af0281a00f50f3f36065711e6cc07f4c863db2d",
        "gas": "0xb757",
        "value": "0x0",
        "data": "0x1d263f670000000000000000000000000000000000000000000000000000000000000001",
        "nonce": "0x3f",
        "accessList": []
      },
      "additionalContracts": [],
      "isFixedGasLimit": false
    }
  ],
  "receipts": [
    {
      "transactionHash": "0x9a5e15956f99639c0e749d4d64db785a9280e34dc588212075fb357a1c1ce4cf",
      "transactionIndex": "0x23",
      "blockHash": "0xbba4b4808cf9a2cdef988eaaaa7ab950ba477d22f9949fb46a3d6f278d2ded08",
      "blockNumber": "0x569b30",
      "from": "0x255e26065387de09436DB52AcC4aE2a3CD11E854",
      "to": "0x7af0281a00f50f3F36065711e6Cc07F4c863db2D",
      "cumulativeGasUsed": "0x581552",
      "gasUsed": "0x84bd",
      "contractAddress": null,
      "logs": [],
      "status": "0x1",
      "logsBloom": "0x00000000000000000000000000000000000000000000000000000000000000000000000000000000000000000000000000000000000000000000000000000000000000000000000000000000000000000000000000000000000000000000000000000000000000000000000000000000000000000000000000000000000000000000000000000000000000000000000000000000000000000000000000000000000000000000000000000000000000000000000000000000000000000000000000000000000000000000000000000000000000000000000000000000000000000000000000000000000000000000000000000000000000000000000000000000",
      "type": "0x2",
      "effectiveGasPrice": "0xca64bb80"
    }
  ],
  "libraries": [],
  "pending": [],
  "returns": {},
  "timestamp": 1712850004,
  "chain": 11155111,
  "multi": false,
  "commit": "332745f"
}