{
  "transactions": [
    {
      "hash": "0xdfb87302a3f506d6222fec97c476ecc186601a6a62f3c2398f9575f7a7b6f0a4",
      "transactionType": "CALL",
      "contractName": null,
      "contractAddress": "0x7af0281a00f50f3F36065711e6Cc07F4c863db2D",
      "function": "flip(bool)",
      "arguments": [
        "false"
      ],
      "transaction": {
        "type": "0x02",
        "from": "0x255e26065387de09436db52acc4ae2a3cd11e854",
        "to": "0x7af0281a00f50f3f36065711e6cc07f4c863db2d",
        "gas": "0x11398",
        "value": "0x0",
        "data": "0x1d263f670000000000000000000000000000000000000000000000000000000000000000",
        "nonce": "0x4f",
        "accessList": []
      },
      "additionalContracts": [],
      "isFixedGasLimit": false
    }
  ],
  "receipts": [
    {
      "transactionHash": "0xdfb87302a3f506d6222fec97c476ecc186601a6a62f3c2398f9575f7a7b6f0a4",
      "transactionIndex": "0x7",
      "blockHash": "0xbc25fba16d30e331e617be0662b6837751e52fc0fb978f208bafda4dc4e48ca4",
      "blockNumber": "0x569b85",
      "from": "0x255e26065387de09436DB52AcC4aE2a3CD11E854",
      "to": "0x7af0281a00f50f3F36065711e6Cc07F4c863db2D",
      "cumulativeGasUsed": "0x64c40",
      "gasUsed": "0xc787",
      "contractAddress": null,
      "logs": [],
      "status": "0x1",
      "logsBloom": "0x00000000000000000000000000000000000000000000000000000000000000000000000000000000000000000000000000000000000000000000000000000000000000000000000000000000000000000000000000000000000000000000000000000000000000000000000000000000000000000000000000000000000000000000000000000000000000000000000000000000000000000000000000000000000000000000000000000000000000000000000000000000000000000000000000000000000000000000000000000000000000000000000000000000000000000000000000000000000000000000000000000000000000000000000000000000",
      "type": "0x2",
      "effectiveGasPrice": "0xb8e1f8dd"
    }
  ],
  "libraries": [],
  "pending": [],
  "returns": {},
  "timestamp": 1712851046,
  "chain": 11155111,
  "multi": false,
  "commit": "332745f"
}