{
  "transactions": [
    {
      "hash": "0xc68a88b5b2a6dfcc719daee956485f88f5bbe0be5d08dd81cf8cdb94160fdf01",
      "transactionType": "CALL",
      "contractName": null,
      "contractAddress": "0x7af0281a00f50f3F36065711e6Cc07F4c863db2D",
      "function": "flip(bool)",
      "arguments": [
        "true"
      ],
      "transaction": {
        "type": "0x02",
        "from": "0x255e26065387de09436db52acc4ae2a3cd11e854",
        "to": "0x7af0281a00f50f3f36065711e6cc07f4c863db2d",
        "gas": "0x123d1",
        "value": "0x0",
        "data": "0x1d263f670000000000000000000000000000000000000000000000000000000000000001",
        "nonce": "0x4e",
        "accessList": []
      },
      "additionalContracts": [],
      "isFixedGasLimit": false
    }
  ],
  "receipts": [
    {
      "transactionHash": "0xc68a88b5b2a6dfcc719daee956485f88f5bbe0be5d08dd81cf8cdb94160fdf01",
      "transactionIndex": "0x7",
      "blockHash": "0x6ccc8fe973b481799cd12dbb61ea06872f0488392a3487e9ce96ee73f937ccd9",
      "blockNumber": "0x569b82",
      "from": "0x255e26065387de09436DB52AcC4aE2a3CD11E854",
      "to": "0x7af0281a00f50f3F36065711e6Cc07F4c863db2D",
      "cumulativeGasUsed": "0x2b7ba",
      "gasUsed": "0x7982",
      "contractAddress": null,
      "logs": [],
      "status": "0x1",
      "logsBloom": "0x00000000000000000000000000000000000000000000000000000000000000000000000000000000000000000000000000000000000000000000000000000000000000000000000000000000000000000000000000000000000000000000000000000000000000000000000000000000000000000000000000000000000000000000000000000000000000000000000000000000000000000000000000000000000000000000000000000000000000000000000000000000000000000000000000000000000000000000000000000000000000000000000000000000000000000000000000000000000000000000000000000000000000000000000000000000",
      "type": "0x2",
      "effectiveGasPrice": "0xb95f7f72"
    }
  ],
  "libraries": [],
  "pending": [],
  "returns": {},
  "timestamp": 1712850997,
  "chain": 11155111,
  "multi": false,
  "commit": "332745f"
}