{
  "transactions": [
    {
      "hash": "0xdfb87302a3f506d6222fec97c476ecc186601a6a62f3c2398f9575f7a7b6f0a4",
      "transactionType": "CALL",
      "contractName": null,
      "contractAddress": "0x7af0281a00f50f3F36065711e6Cc07F4c863db2D",
      "function": "flip(bool)",
      "arguments": [
        "false"
      ],
      "transaction": {
        "type": "0x02",
        "from": "0x255e26065387de09436db52acc4ae2a3cd11e854",
        "to": "0x7af0281a00f50f3f36065711e6cc07f4c863db2d",
        "gas": "0x11398",
        "value": "0x0",
        "data": "0x1d263f670000000000000000000000000000000000000000000000000000000000000000",
        "nonce": "0x4f",
        "accessList": []
      },
      "additionalContracts": [],
      "isFixedGasLimit": false
    }
  ],
  "receipts": [],
  "libraries": [],
  "pending": [
    "0xdfb87302a3f506d6222fec97c476ecc186601a6a62f3c2398f9575f7a7b6f0a4"
  ],
  "returns": {},
  "timestamp": 1712851022,
  "chain": 11155111,
  "multi": false,
  "commit": "332745f"
}