{
  "transactions": [
    {
      "hash": "0xebb9625e096b899a9b6c9c523892c8ca9fe5762b6ef7a0ecd6ee01f61843674b",
      "transactionType": "CALL",
      "contractName": null,
      "contractAddress": "0x7af0281a00f50f3F36065711e6Cc07F4c863db2D",
      "function": "flip(bool)",
      "arguments": [
        "true"
      ],
      "transaction": {
        "type": "0x02",
        "from": "0x255e26065387de09436db52acc4ae2a3cd11e854",
        "to": "0x7af0281a00f50f3f36065711e6cc07f4c863db2d",
        "gas": "0xa647",
        "value": "0x0",
        "data": "0x1d263f670000000000000000000000000000000000000000000000000000000000000001",
        "nonce": "0x40",
        "accessList": []
      },
      "additionalContracts": [],
      "isFixedGasLimit": false
    }
  ],
  "receipts": [],
  "libraries": [],
  "pending": [
    "0xebb9625e096b899a9b6c9c523892c8ca9fe5762b6ef7a0ecd6ee01f61843674b"
  ],
  "returns": {},
  "timestamp": 1712850041,
  "chain": 11155111,
  "multi": false,
  "commit": "332745f"
}