{
  "transactions": [
    {
      "hash": "0x7bdc05e011da01b80d1488fd168483ccc3bdc0dd6851df39f96152d326f4d277",
      "transactionType": "CALL",
      "contractName": null,
      "contractAddress": "0x48772A6d9BAFEb61352076eeB3aEab142d4A6C9E",
      "function": "unlock(bytes16)",
      "arguments": [
        "0x70b92c683060bdc7062e9fef72a6956900000000000000000000000000000000"
      ],
      "transaction": {
        "type": "0x02",
        "from": "0x255e26065387de09436db52acc4ae2a3cd11e854",
        "to": "0x48772a6d9bafeb61352076eeb3aeab142d4a6c9e",
        "gas": "0x8940",
        "value": "0x0",
        "data": "0xe1afb08c70b92c683060bdc7062e9fef72a6956900000000000000000000000000000000",
        "nonce": "0xbd",
        "accessList": []
      },
      "additionalContracts": [],
      "isFixedGasLimit": false
    }
  ],
  "receipts": [],
  "libraries": [],
  "pending": [
    "0x7bdc05e011da01b80d1488fd168483ccc3bdc0dd6851df39f96152d326f4d277"
  ],
  "returns": {},
  "timestamp": 1713270536,
  "chain": 11155111,
  "multi": false,
  "commit": "e032595"
}