{
  "transactions": [
    {
      "hash": "0xf5023d4f0d9fec10d84b6100c6f4740807861c44202b60e20fc9eb0e80f842d2",
      "transactionType": "CREATE",
      "contractName": "TelephoneExecutor",
      "contractAddress": "0xd055Ebd621882BFaEf78A7fa622eAabd051116C6",
      "function": null,
      "arguments": [
        "0x435fC6E0337e13eA1A14AFaCa3445d9C4337742f"
      ],
      "transaction": {
        "type": "0x02",
        "from": "0x255e26065387de09436db52acc4ae2a3cd11e854",
        "gas": "0x2f128",
        "value": "0x0",
        "data": "0x608060405234801561001057600080fd5b506040516101da3803806101da83398101604081905261002f91610054565b600080546001600160a01b0319166001600160a01b0392909216919091179055610084565b60006020828403121561006657600080fd5b81516001600160a01b038116811461007d57600080fd5b9392505050565b610147806100936000396000f3fe608060405234801561001057600080fd5b50600436106100365760003560e01c80631e77933e1461003b57806393acaa5914610050575b600080fd5b61004e6100493660046100e1565b61007f565b005b600054610063906001600160a01b031681565b6040516001600160a01b03909116815260200160405180910390f35b60005460405163a6f9dae160e01b81526001600160a01b0383811660048301529091169063a6f9dae190602401600060405180830381600087803b1580156100c657600080fd5b505af11580156100da573d6000803e3d6000fd5b5050505050565b6000602082840312156100f357600080fd5b81356001600160a01b038116811461010a57600080fd5b939250505056fea26469706673582212205c72b09a77d43e5001e3d6b1a11c67eb810aff9b0810c34f4af1fe747b35e0c464736f6c63430008150033000000000000000000000000435fc6e0337e13ea1a14afaca3445d9c4337742f",
        "nonce": "0x7a",
        "accessList": []
      },
      "additionalContracts": [],
      "isFixedGasLimit": false
    },
    {
      "hash": "0x9957ec41bbcd1c907531684e00bbf4ac639945b1443fff4140d4670d223e4bd6",
      "transactionType": "CALL",
      "contractName": "script/telephone.s.sol:TelephoneExecutor",
      "contractAddress": "0xd055Ebd621882BFaEf78A7fa622eAabd051116C6",
      "function": "change(address)",
      "arguments": [
        "0x1804c8AB1F12E6bbf3894d4083f33e07309d1f38"
      ],
      "transaction": {
        "type": "0x02",
        "from": "0x255e26065387de09436db52acc4ae2a3cd11e854",
        "to": "0xd055ebd621882bfaef78a7fa622eaabd051116c6",
        "gas": "0xac76",
        "value": "0x0",
        "data": "0x1e77933e0000000000000000000000001804c8ab1f12e6bbf3894d4083f33e07309d1f38",
        "nonce": "0x7b",
        "accessList": []
      },
      "additionalContracts": [],
      "isFixedGasLimit": false
    }
  ],
  "receipts": [],
  "libraries": [],
  "pending": [
    "0xf5023d4f0d9fec10d84b6100c6f4740807861c44202b60e20fc9eb0e80f842d2",
    "0x9957ec41bbcd1c907531684e00bbf4ac639945b1443fff4140d4670d223e4bd6"
  ],
  "returns": {},
  "timestamp": 1712852965,
  "chain": 11155111,
  "multi": false,
  "commit": "d25375f"
}