{
  "transactions": [
    {
      "hash": "0xcd0e98411c40609caf01f43ea615b14a3e4ddf44b6c40630303b74aafd2cffee",
      "transactionType": "CREATE",
      "contractName": "TelephoneExecutor",
      "contractAddress": "0x2E53AE8b19C97918D354426CC65d8A7eE532b4b1",
      "function": null,
      "arguments": [
        "0x435fC6E0337e13eA1A14AFaCa3445d9C4337742f"
      ],
      "transaction": {
        "type": "0x02",
        "from": "0x255e26065387de09436db52acc4ae2a3cd11e854",
        "gas": "0x2f128",
        "value": "0x0",
        "data": "0x608060405234801561001057600080fd5b506040516101da3803806101da83398101604081905261002f91610054565b600080546001600160a01b0319166001600160a01b0392909216919091179055610084565b60006020828403121561006657600080fd5b81516001600160a01b038116811461007d57600080fd5b9392505050565b610147806100936000396000f3fe608060405234801561001057600080fd5b50600436106100365760003560e01c806393acaa591461003b578063a6f9dae11461006a575b600080fd5b60005461004e906001600160a01b031681565b6040516001600160a01b03909116815260200160405180910390f35b61007d6100783660046100e1565b61007f565b005b60005460405163a6f9dae160e01b81526001600160a01b0383811660048301529091169063a6f9dae190602401600060405180830381600087803b1580156100c657600080fd5b505af11580156100da573d6000803e3d6000fd5b5050505050565b6000602082840312156100f357600080fd5b81356001600160a01b038116811461010a57600080fd5b939250505056fea2646970667358221220b35a304285d3a3a92864970c27f3d471dd5a3f0d5950c577a9cb87ed0f8cd46164736f6c63430008150033000000000000000000000000435fc6e0337e13ea1a14afaca3445d9c4337742f",
        "nonce": "0x6d",
        "accessList": []
      },
      "additionalContracts": [],
      "isFixedGasLimit": false
    },
    {
      "hash": "0xd4d3c7a36f574eb5cd449ead5f34e37364d0d4d533646b7b6a39da4634822969",
      "transactionType": "CALL",
      "contractName": "script/telephone.s.sol:TelephoneExecutor",
      "contractAddress": "0x2E53AE8b19C97918D354426CC65d8A7eE532b4b1",
      "function": "changeOwner(address)",
      "arguments": [
        "0x5b73C5498c1E3b4dbA84de0F1833c4a029d90519"
      ],
      "transaction": {
        "type": "0x02",
        "from": "0x255e26065387de09436db52acc4ae2a3cd11e854",
        "to": "0x2e53ae8b19c97918d354426cc65d8a7ee532b4b1",
        "gas": "0xb6bc",
        "value": "0x0",
        "data": "0xa6f9dae10000000000000000000000005b73c5498c1e3b4dba84de0f1833c4a029d90519",
        "nonce": "0x6e",
        "accessList": []
      },
      "additionalContracts": [],
      "isFixedGasLimit": false
    }
  ],
  "receipts": [
    {
      "transactionHash": "0xcd0e98411c40609caf01f43ea615b14a3e4ddf44b6c40630303b74aafd2cffee",
      "transactionIndex": "0x6",
      "blockHash": "0x793901916b0dec917b1ca8d81926f71a6a0d50499fca8d3e41e4153e906e8705",
      "blockNumber": "0x569bec",
      "from": "0x255e26065387de09436DB52AcC4aE2a3CD11E854",
      "to": null,
      "cumulativeGasUsed": "0x42faa",
      "gasUsed": "0x2437a",
      "contractAddress": "0x2E53AE8b19C97918D354426CC65d8A7eE532b4b1",
      "logs": [],
      "status": "0x1",
      "logsBloom": "0x00000000000000000000000000000000000000000000000000000000000000000000000000000000000000000000000000000000000000000000000000000000000000000000000000000000000000000000000000000000000000000000000000000000000000000000000000000000000000000000000000000000000000000000000000000000000000000000000000000000000000000000000000000000000000000000000000000000000000000000000000000000000000000000000000000000000000000000000000000000000000000000000000000000000000000000000000000000000000000000000000000000000000000000000000000000",
      "type": "0x2",
      "effectiveGasPrice": "0xb6968902"
    },
    {
      "transactionHash": "0xd4d3c7a36f574eb5cd449ead5f34e37364d0d4d533646b7b6a39da4634822969",
      "transactionIndex": "0x7",
      "blockHash": "0x793901916b0dec917b1ca8d81926f71a6a0d50499fca8d3e41e4153e906e8705",
      "blockNumber": "0x569bec",
      "from": "0x255e26065387de09436DB52AcC4aE2a3CD11E854",
      "to": "0x2E53AE8b19C97918D354426CC65d8A7eE532b4b1",
      "cumulativeGasUsed": "0x4ac9d",
      "gasUsed": "0x7cf3",
      "contractAddress": null,
      "logs": [],
      "status": "0x1",
      "logsBloom": "0x00000000000000000000000000000000000000000000000000000000000000000000000000000000000000000000000000000000000000000000000000000000000000000000000000000000000000000000000000000000000000000000000000000000000000000000000000000000000000000000000000000000000000000000000000000000000000000000000000000000000000000000000000000000000000000000000000000000000000000000000000000000000000000000000000000000000000000000000000000000000000000000000000000000000000000000000000000000000000000000000000000000000000000000000000000000",
      "type": "0x2",
      "effectiveGasPrice": "0xb6968902"
    }
  ],
  "libraries": [],
  "pending": [],
  "returns": {},
  "timestamp": 1712852378,
  "chain": 11155111,
  "multi": false,
  "commit": "d25375f"
}