{
  "transactions": [
    {
      "hash": "0x2e7a1a51aed5403760b6d538cf2cae98ddde4cde75a315b08023d351b7e0fed5",
      "transactionType": "CREATE",
      "contractName": "TelephoneExecutor",
      "contractAddress": "0x7df589156138fE4645C1Dc7737AdAee1De9Af9b9",
      "function": null,
      "arguments": [
        "0x435fC6E0337e13eA1A14AFaCa3445d9C4337742f"
      ],
      "transaction": {
        "type": "0x02",
        "from": "0x255e26065387de09436db52acc4ae2a3cd11e854",
        "gas": "0x2f128",
        "value": "0x0",
        "data": "0x608060405234801561001057600080fd5b506040516101da3803806101da83398101604081905261002f91610054565b600080546001600160a01b0319166001600160a01b0392909216919091179055610084565b60006020828403121561006657600080fd5b81516001600160a01b038116811461007d57600080fd5b9392505050565b610147806100936000396000f3fe608060405234801561001057600080fd5b50600436106100365760003560e01c80631e77933e1461003b57806393acaa5914610050575b600080fd5b61004e6100493660046100e1565b61007f565b005b600054610063906001600160a01b031681565b6040516001600160a01b03909116815260200160405180910390f35b60005460405163a6f9dae160e01b81526001600160a01b0383811660048301529091169063a6f9dae190602401600060405180830381600087803b1580156100c657600080fd5b505af11580156100da573d6000803e3d6000fd5b5050505050565b6000602082840312156100f357600080fd5b81356001600160a01b038116811461010a57600080fd5b939250505056fea26469706673582212206de4f8e2fc45194071e7dddad23d60e89d7ee95afc81cf312a7e26b04774fb8664736f6c63430008150033000000000000000000000000435fc6e0337e13ea1a14afaca3445d9c4337742f",
        "nonce": "0x7d",
        "accessList": []
      },
      "additionalContracts": [],
      "isFixedGasLimit": false
    },
    {
      "hash": "0x6919f8bb8c734b76d1db53298a1206849226877084d1f8044c3260d3c1df7a7c",
      "transactionType": "CALL",
      "contractName": "script/telephone.s.sol:TelephoneExecutor",
      "contractAddress": "0x7df589156138fE4645C1Dc7737AdAee1De9Af9b9",
      "function": "change(address)",
      "arguments": [
        "0x255e26065387de09436DB52AcC4aE2a3CD11E854"
      ],
      "transaction": {
        "type": "0x02",
        "from": "0x255e26065387de09436db52acc4ae2a3cd11e854",
        "to": "0x7df589156138fe4645c1dc7737adaee1de9af9b9",
        "gas": "0xac76",
        "value": "0x0",
        "data": "0x1e77933e000000000000000000000000255e26065387de09436db52acc4ae2a3cd11e854",
        "nonce": "0x7e",
        "accessList": []
      },
      "additionalContracts": [],
      "isFixedGasLimit": false
    }
  ],
  "receipts": [],
  "libraries": [],
  "pending": [
    "0x2e7a1a51aed5403760b6d538cf2cae98ddde4cde75a315b08023d351b7e0fed5",
    "0x6919f8bb8c734b76d1db53298a1206849226877084d1f8044c3260d3c1df7a7c"
  ],
  "returns": {},
  "timestamp": 1712853018,
  "chain": 11155111,
  "multi": false,
  "commit": "d25375f"
}