{
  "transactions": [
    {
      "hash": "0xb684e0919e1a2343a2cae149f4da018f91c306e85190f988f1f42459e5272c57",
      "transactionType": "CREATE",
      "contractName": "TelephoneExecutor",
      "contractAddress": "0x23f01208074C571dd1FfEd1746e32078D914F721",
      "function": null,
      "arguments": [
        "0x435fC6E0337e13eA1A14AFaCa3445d9C4337742f"
      ],
      "transaction": {
        "type": "0x02",
        "from": "0x255e26065387de09436db52acc4ae2a3cd11e854",
        "gas": "0x2f128",
        "value": "0x0",
        "data": "0x608060405234801561001057600080fd5b506040516101da3803806101da83398101604081905261002f91610054565b600080546001600160a01b0319166001600160a01b0392909216919091179055610084565b60006020828403121561006657600080fd5b81516001600160a01b038116811461007d57600080fd5b9392505050565b610147806100936000396000f3fe608060405234801561001057600080fd5b50600436106100365760003560e01c806393acaa591461003b578063a6f9dae11461006a575b600080fd5b60005461004e906001600160a01b031681565b6040516001600160a01b03909116815260200160405180910390f35b61007d6100783660046100e1565b61007f565b005b60005460405163a6f9dae160e01b81526001600160a01b0383811660048301529091169063a6f9dae190602401600060405180830381600087803b1580156100c657600080fd5b505af11580156100da573d6000803e3d6000fd5b5050505050565b6000602082840312156100f357600080fd5b81356001600160a01b038116811461010a57600080fd5b939250505056fea2646970667358221220b35a304285d3a3a92864970c27f3d471dd5a3f0d5950c577a9cb87ed0f8cd46164736f6c63430008150033000000000000000000000000435fc6e0337e13ea1a14afaca3445d9c4337742f",
        "nonce": "0x70",
        "accessList": []
      },
      "additionalContracts": [],
      "isFixedGasLimit": false
    },
    {
      "hash": "0x45f2eec2df29bf94532eb0afb5fc94e4a4743d804a7780a2430525de71354063",
      "transactionType": "CALL",
      "contractName": "script/telephone.s.sol:TelephoneExecutor",
      "contractAddress": "0x23f01208074C571dd1FfEd1746e32078D914F721",
      "function": "changeOwner(address)",
      "arguments": [
        "0x5b73C5498c1E3b4dbA84de0F1833c4a029d90519"
      ],
      "transaction": {
        "type": "0x02",
        "from": "0x255e26065387de09436db52acc4ae2a3cd11e854",
        "to": "0x23f01208074c571dd1ffed1746e32078d914f721",
        "gas": "0xa6bd",
        "value": "0x0",
        "data": "0xa6f9dae10000000000000000000000005b73c5498c1e3b4dba84de0f1833c4a029d90519",
        "nonce": "0x71",
        "accessList": []
      },
      "additionalContracts": [],
      "isFixedGasLimit": false
    }
  ],
  "receipts": [],
  "libraries": [],
  "pending": [
    "0xb684e0919e1a2343a2cae149f4da018f91c306e85190f988f1f42459e5272c57",
    "0x45f2eec2df29bf94532eb0afb5fc94e4a4743d804a7780a2430525de71354063"
  ],
  "returns": {},
  "timestamp": 1712852495,
  "chain": 11155111,
  "multi": false,
  "commit": "d25375f"
}