{
  "transactions": [
    {
      "hash": "0xec25b6056ff7746a9288b8ba5ccc23a2a351eb669abb286580ee4bc815099d36",
      "transactionType": "CREATE",
      "contractName": "TelephoneExecutor",
      "contractAddress": "0xbE1bd501bAf4A1b824128dA1fdB1C2881B82C26d",
      "function": null,
      "arguments": [
        "0x435fC6E0337e13eA1A14AFaCa3445d9C4337742f"
      ],
      "transaction": {
        "type": "0x02",
        "from": "0x255e26065387de09436db52acc4ae2a3cd11e854",
        "gas": "0x2f128",
        "value": "0x0",
        "data": "0x608060405234801561001057600080fd5b506040516101da3803806101da83398101604081905261002f91610054565b600080546001600160a01b0319166001600160a01b0392909216919091179055610084565b60006020828403121561006657600080fd5b81516001600160a01b038116811461007d57600080fd5b9392505050565b610147806100936000396000f3fe608060405234801561001057600080fd5b50600436106100365760003560e01c80631e77933e1461003b57806393acaa5914610050575b600080fd5b61004e6100493660046100e1565b61007f565b005b600054610063906001600160a01b031681565b6040516001600160a01b03909116815260200160405180910390f35b60005460405163a6f9dae160e01b81526001600160a01b0383811660048301529091169063a6f9dae190602401600060405180830381600087803b1580156100c657600080fd5b505af11580156100da573d6000803e3d6000fd5b5050505050565b6000602082840312156100f357600080fd5b81356001600160a01b038116811461010a57600080fd5b939250505056fea2646970667358221220cd82ebd7359cce04c3184e6bb38a34740bba4471a6517b95efe2f13c5ce1a0bf64736f6c63430008150033000000000000000000000000435fc6e0337e13ea1a14afaca3445d9c4337742f",
        "nonce": "0x78",
        "accessList": []
      },
      "additionalContracts": [],
      "isFixedGasLimit": false
    },
    {
      "hash": "0x17481daf8488f2b041070caf8ceae3773fd8485ef1d69314f085a6e559ba1bec",
      "transactionType": "CALL",
      "contractName": "script/telephone.s.sol:TelephoneExecutor",
      "contractAddress": "0xbE1bd501bAf4A1b824128dA1fdB1C2881B82C26d",
      "function": "change(address)",
      "arguments": [
        "0x5b73C5498c1E3b4dbA84de0F1833c4a029d90519"
      ],
      "transaction": {
        "type": "0x02",
        "from": "0x255e26065387de09436db52acc4ae2a3cd11e854",
        "to": "0xbe1bd501baf4a1b824128da1fdb1c2881b82c26d",
        "gas": "0x9d5b",
        "value": "0x0",
        "data": "0x1e77933e0000000000000000000000005b73c5498c1e3b4dba84de0f1833c4a029d90519",
        "nonce": "0x79",
        "accessList": []
      },
      "additionalContracts": [],
      "isFixedGasLimit": false
    }
  ],
  "receipts": [
    {
      "transactionHash": "0x17481daf8488f2b041070caf8ceae3773fd8485ef1d69314f085a6e559ba1bec",
      "transactionIndex": "0xd",
      "blockHash": "0xbdc353333d1422645c70d1165d6a2849a61a8c060dd2783009424022f23c452a",
      "blockNumber": "0x569c1a",
      "from": "0x255e26065387de09436DB52AcC4aE2a3CD11E854",
      "to": "0xbE1bd501bAf4A1b824128dA1fdB1C2881B82C26d",
      "cumulativeGasUsed": "0x9286e",
      "gasUsed": "0x53b8",
      "contractAddress": null,
      "logs": [],
      "status": "0x1",
      "logsBloom": "0x00000000000000000000000000000000000000000000000000000000000000000000000000000000000000000000000000000000000000000000000000000000000000000000000000000000000000000000000000000000000000000000000000000000000000000000000000000000000000000000000000000000000000000000000000000000000000000000000000000000000000000000000000000000000000000000000000000000000000000000000000000000000000000000000000000000000000000000000000000000000000000000000000000000000000000000000000000000000000000000000000000000000000000000000000000000",
      "type": "0x2",
      "effectiveGasPrice": "0xbb0f8efd"
    }
  ],
  "libraries": [],
  "pending": [],
  "returns": {},
  "timestamp": 1712852937,
  "chain": 11155111,
  "multi": false,
  "commit": "d25375f"
}