{
  "transactions": [
    {
      "hash": "0x2c459dce1b7bc9e99670eaa47073fc9bdc6ddf30243a4bd77a6cbdecd02b199e",
      "transactionType": "CREATE",
      "contractName": "TelephoneExecutor",
      "contractAddress": "0xDe3C6C21e2Bd71F92A6EdF41C983572464FE2b44",
      "function": null,
      "arguments": [
        "0x435fC6E0337e13eA1A14AFaCa3445d9C4337742f"
      ],
      "transaction": {
        "type": "0x02",
        "from": "0x255e26065387de09436db52acc4ae2a3cd11e854",
        "gas": "0x2f128",
        "value": "0x0",
        "data": "0x608060405234801561001057600080fd5b506040516101da3803806101da83398101604081905261002f91610054565b600080546001600160a01b0319166001600160a01b0392909216919091179055610084565b60006020828403121561006657600080fd5b81516001600160a01b038116811461007d57600080fd5b9392505050565b610147806100936000396000f3fe608060405234801561001057600080fd5b50600436106100365760003560e01c80631e77933e1461003b57806393acaa5914610050575b600080fd5b61004e6100493660046100e1565b61007f565b005b600054610063906001600160a01b031681565b6040516001600160a01b03909116815260200160405180910390f35b60005460405163a6f9dae160e01b81526001600160a01b0383811660048301529091169063a6f9dae190602401600060405180830381600087803b1580156100c657600080fd5b505af11580156100da573d6000803e3d6000fd5b5050505050565b6000602082840312156100f357600080fd5b81356001600160a01b038116811461010a57600080fd5b939250505056fea2646970667358221220370576e5de67f99ffae5e96475de8be618424a4a9f8c020ecd5c417bf73a7eb964736f6c63430008150033000000000000000000000000435fc6e0337e13ea1a14afaca3445d9c4337742f",
        "nonce": "0x76",
        "accessList": []
      },
      "additionalContracts": [],
      "isFixedGasLimit": false
    },
    {
      "hash": "0x1dfa89fb68f9035a1ad418578e1501ee15418c8972f812abea3f6d1b3262664a",
      "transactionType": "CALL",
      "contractName": "script/telephone.s.sol:TelephoneExecutor",
      "contractAddress": "0xDe3C6C21e2Bd71F92A6EdF41C983572464FE2b44",
      "function": "change(address)",
      "arguments": [
        "0x5b73C5498c1E3b4dbA84de0F1833c4a029d90519"
      ],
      "transaction": {
        "type": "0x02",
        "from": "0x255e26065387de09436db52acc4ae2a3cd11e854",
        "to": "0xde3c6c21e2bd71f92a6edf41c983572464fe2b44",
        "gas": "0x9d5b",
        "value": "0x0",
        "data": "0x1e77933e0000000000000000000000005b73c5498c1e3b4dba84de0f1833c4a029d90519",
        "nonce": "0x77",
        "accessList": []
      },
      "additionalContracts": [],
      "isFixedGasLimit": false
    }
  ],
  "receipts": [
    {
      "transactionHash": "0x2c459dce1b7bc9e99670eaa47073fc9bdc6ddf30243a4bd77a6cbdecd02b199e",
      "transactionIndex": "0x3",
      "blockHash": "0xe87c337d73db6236e6c89da0756cf148910d7dd75e679228abbe6b4dd41fe1d9",
      "blockNumber": "0x569c16",
      "from": "0x255e26065387de09436DB52AcC4aE2a3CD11E854",
      "to": null,
      "cumulativeGasUsed": "0x33992",
      "gasUsed": "0x2437a",
      "contractAddress": "0xDe3C6C21e2Bd71F92A6EdF41C983572464FE2b44",
      "logs": [],
      "status": "0x1",
      "logsBloom": "0x00000000000000000000000000000000000000000000000000000000000000000000000000000000000000000000000000000000000000000000000000000000000000000000000000000000000000000000000000000000000000000000000000000000000000000000000000000000000000000000000000000000000000000000000000000000000000000000000000000000000000000000000000000000000000000000000000000000000000000000000000000000000000000000000000000000000000000000000000000000000000000000000000000000000000000000000000000000000000000000000000000000000000000000000000000000",
      "type": "0x2",
      "effectiveGasPrice": "0xba76b72e"
    },
    {
      "transactionHash": "0x1dfa89fb68f9035a1ad418578e1501ee15418c8972f812abea3f6d1b3262664a",
      "transactionIndex": "0x4",
      "blockHash": "0xe87c337d73db6236e6c89da0756cf148910d7dd75e679228abbe6b4dd41fe1d9",
      "blockNumber": "0x569c16",
      "from": "0x255e26065387de09436DB52AcC4aE2a3CD11E854",
      "to": "0xDe3C6C21e2Bd71F92A6EdF41C983572464FE2b44",
      "cumulativeGasUsed": "0x3ab7f",
      "gasUsed": "0x71ed",
      "contractAddress": null,
      "logs": [],
      "status": "0x1",
      "logsBloom": "0x00000000000000000000000000000000000000000000000000000000000000000000000000000000000000000000000000000000000000000000000000000000000000000000000000000000000000000000000000000000000000000000000000000000000000000000000000000000000000000000000000000000000000000000000000000000000000000000000000000000000000000000000000000000000000000000000000000000000000000000000000000000000000000000000000000000000000000000000000000000000000000000000000000000000000000000000000000000000000000000000000000000000000000000000000000000",
      "type": "0x2",
      "effectiveGasPrice": "0xba76b72e"
    }
  ],
  "libraries": [],
  "pending": [],
  "returns": {},
  "timestamp": 1712852886,
  "chain": 11155111,
  "multi": false,
  "commit": "d25375f"
}