{
  "transactions": [
    {
      "hash": "0x481cefecb84bc13f1cc6a37bb5ae3a90063be38ba7136c4a708beae5c49e25fe",
      "transactionType": "CREATE",
      "contractName": "TelephoneExecutor",
      "contractAddress": "0x4c72057eA63CfF00680A36D1b32748100021232F",
      "function": null,
      "arguments": [
        "0x435fC6E0337e13eA1A14AFaCa3445d9C4337742f"
      ],
      "transaction": {
        "type": "0x02",
        "from": "0x255e26065387de09436db52acc4ae2a3cd11e854",
        "gas": "0x2f128",
        "value": "0x0",
        "data": "0x608060405234801561001057600080fd5b506040516101da3803806101da83398101604081905261002f91610054565b600080546001600160a01b0319166001600160a01b0392909216919091179055610084565b60006020828403121561006657600080fd5b81516001600160a01b038116811461007d57600080fd5b9392505050565b610147806100936000396000f3fe608060405234801561001057600080fd5b50600436106100365760003560e01c806393acaa591461003b578063a6f9dae11461006a575b600080fd5b60005461004e906001600160a01b031681565b6040516001600160a01b03909116815260200160405180910390f35b61007d6100783660046100e1565b61007f565b005b60005460405163a6f9dae160e01b81526001600160a01b0383811660048301529091169063a6f9dae190602401600060405180830381600087803b1580156100c657600080fd5b505af11580156100da573d6000803e3d6000fd5b5050505050565b6000602082840312156100f357600080fd5b81356001600160a01b038116811461010a57600080fd5b939250505056fea2646970667358221220b02a902f4090c839cd830f75a7bf94e4386a2ed273d8e3b86dd4438aa56e53a564736f6c63430008150033000000000000000000000000435fc6e0337e13ea1a14afaca3445d9c4337742f",
        "nonce": "0x73",
        "accessList": []
      },
      "additionalContracts": [],
      "isFixedGasLimit": false
    },
    {
      "hash": "0xda710725d1fc7020fbbf72d44872f796c9bed1d52cba802b29c204ddd7ddc1c5",
      "transactionType": "CALL",
      "contractName": "script/telephone.s.sol:TelephoneExecutor",
      "contractAddress": "0x4c72057eA63CfF00680A36D1b32748100021232F",
      "function": "changeOwner(address)",
      "arguments": [
        "0x5b73C5498c1E3b4dbA84de0F1833c4a029d90519"
      ],
      "transaction": {
        "type": "0x02",
        "from": "0x255e26065387de09436db52acc4ae2a3cd11e854",
        "to": "0x4c72057ea63cff00680a36d1b32748100021232f",
        "gas": "0xa6bd",
        "value": "0x0",
        "data": "0xa6f9dae10000000000000000000000005b73c5498c1e3b4dba84de0f1833c4a029d90519",
        "nonce": "0x74",
        "accessList": []
      },
      "additionalContracts": [],
      "isFixedGasLimit": false
    }
  ],
  "receipts": [
    {
      "transactionHash": "0x481cefecb84bc13f1cc6a37bb5ae3a90063be38ba7136c4a708beae5c49e25fe",
      "transactionIndex": "0xe",
      "blockHash": "0x56687b63df39f99f8ad8b9c35e3dd73d75372c56aec97859888590bc2f4991de",
      "blockNumber": "0x569bfc",
      "from": "0x255e26065387de09436DB52AcC4aE2a3CD11E854",
      "to": null,
      "cumulativeGasUsed": "0x131740",
      "gasUsed": "0x2437a",
      "contractAddress": "0x4c72057eA63CfF00680A36D1b32748100021232F",
      "logs": [],
      "status": "0x1",
      "logsBloom": "0x00000000000000000000000000000000000000000000000000000000000000000000000000000000000000000000000000000000000000000000000000000000000000000000000000000000000000000000000000000000000000000000000000000000000000000000000000000000000000000000000000000000000000000000000000000000000000000000000000000000000000000000000000000000000000000000000000000000000000000000000000000000000000000000000000000000000000000000000000000000000000000000000000000000000000000000000000000000000000000000000000000000000000000000000000000000",
      "type": "0x2",
      "effectiveGasPrice": "0xb7049b42"
    },
    {
      "transactionHash": "0xda710725d1fc7020fbbf72d44872f796c9bed1d52cba802b29c204ddd7ddc1c5",
      "transactionIndex": "0xf",
      "blockHash": "0x56687b63df39f99f8ad8b9c35e3dd73d75372c56aec97859888590bc2f4991de",
      "blockNumber": "0x569bfc",
      "from": "0x255e26065387de09436DB52AcC4aE2a3CD11E854",
      "to": "0x4c72057eA63CfF00680A36D1b32748100021232F",
      "cumulativeGasUsed": "0x138943",
      "gasUsed": "0x7203",
      "contractAddress": null,
      "logs": [],
      "status": "0x1",
      "logsBloom": "0x00000000000000000000000000000000000000000000000000000000000000000000000000000000000000000000000000000000000000000000000000000000000000000000000000000000000000000000000000000000000000000000000000000000000000000000000000000000000000000000000000000000000000000000000000000000000000000000000000000000000000000000000000000000000000000000000000000000000000000000000000000000000000000000000000000000000000000000000000000000000000000000000000000000000000000000000000000000000000000000000000000000000000000000000000000000",
      "type": "0x2",
      "effectiveGasPrice": "0xb7049b42"
    }
  ],
  "libraries": [],
  "pending": [],
  "returns": {},
  "timestamp": 1712852569,
  "chain": 11155111,
  "multi": false,
  "commit": "d25375f"
}