{
  "transactions": [
    {
      "hash": "0xa70b046c9eb2cbab4b8e2be370a6560f71cbe298e514ca6d6aa361b40ddd6697",
      "transactionType": "CALL",
      "contractName": null,
      "contractAddress": "0x0028644bE9Ab463F91F68015FfC3E3a35e473D76",
      "function": "transfer(address,uint256)",
      "arguments": [
        "0x255e26065387de09436DB52AcC4aE2a3CD11E854",
        "21"
      ],
      "transaction": {
        "type": "0x02",
        "from": "0x255e26065387de09436db52acc4ae2a3cd11e854",
        "to": "0x0028644be9ab463f91f68015ffc3e3a35e473d76",
        "gas": "0x83dd",
        "value": "0x0",
        "data": "0xa9059cbb000000000000000000000000255e26065387de09436db52acc4ae2a3cd11e8540000000000000000000000000000000000000000000000000000000000000015",
        "nonce": "0x86",
        "accessList": []
      },
      "additionalContracts": [],
      "isFixedGasLimit": false
    }
  ],
  "receipts": [
    {
      "transactionHash": "0xa70b046c9eb2cbab4b8e2be370a6560f71cbe298e514ca6d6aa361b40ddd6697",
      "transactionIndex": "0x6",
      "blockHash": "0xee2323f1b8fe3994d7e0dbde93755e4810703b546bd4683a1f01d0378b5fe9eb",
      "blockNumber": "0x56a2fb",
      "from": "0x255e26065387de09436DB52AcC4aE2a3CD11E854",
      "to": "0x0028644bE9Ab463F91F68015FfC3E3a35e473D76",
      "cumulativeGasUsed": "0x51239",
      "gasUsed": "0x5f78",
      "contractAddress": null,
      "logs": [],
      "status": "0x1",
      "logsBloom": "0x00000000000000000000000000000000000000000000000000000000000000000000000000000000000000000000000000000000000000000000000000000000000000000000000000000000000000000000000000000000000000000000000000000000000000000000000000000000000000000000000000000000000000000000000000000000000000000000000000000000000000000000000000000000000000000000000000000000000000000000000000000000000000000000000000000000000000000000000000000000000000000000000000000000000000000000000000000000000000000000000000000000000000000000000000000000",
      "type": "0x2",
      "effectiveGasPrice": "0xb2d6bdcf"
    }
  ],
  "libraries": [],
  "pending": [],
  "returns": {},
  "timestamp": 1712875422,
  "chain": 11155111,
  "multi": false,
  "commit": "c54d630"
}