{
  "transactions": [
    {
      "hash": "0x74024e5912fd716435d0b6f419e7ff9efa861a4bfc940fd9e8f2da4523a1a7da",
      "transactionType": "CALL",
      "contractName": null,
      "contractAddress": "0x0028644bE9Ab463F91F68015FfC3E3a35e473D76",
      "function": "transfer(address,uint256)",
      "arguments": [
        "0x255e26065387de09436DB52AcC4aE2a3CD11E854",
        "21"
      ],
      "transaction": {
        "type": "0x02",
        "from": "0x255e26065387de09436db52acc4ae2a3cd11e854",
        "to": "0x0028644be9ab463f91f68015ffc3e3a35e473d76",
        "gas": "0x83dd",
        "value": "0x0",
        "data": "0xa9059cbb000000000000000000000000255e26065387de09436db52acc4ae2a3cd11e8540000000000000000000000000000000000000000000000000000000000000015",
        "nonce": "0x87",
        "accessList": []
      },
      "additionalContracts": [],
      "isFixedGasLimit": false
    }
  ],
  "receipts": [],
  "libraries": [],
  "pending": [
    "0x74024e5912fd716435d0b6f419e7ff9efa861a4bfc940fd9e8f2da4523a1a7da"
  ],
  "returns": {},
  "timestamp": 1712875634,
  "chain": 11155111,
  "multi": false,
  "commit": "c54d630"
}