{
  "transactions": [
    {
      "hash": "0x859920edc172d3831d39febce2f206081020565855f457950eb66895a5f8a762",
      "transactionType": "CALL",
      "contractName": null,
      "contractAddress": "0x0028644bE9Ab463F91F68015FfC3E3a35e473D76",
      "function": "transfer(address,uint256)",
      "arguments": [
        "0x255e26065387de09436DB52AcC4aE2a3CD11E854",
        "3333333333333333333333333333333333333"
      ],
      "transaction": {
        "type": "0x02",
        "from": "0x255e26065387de09436db52acc4ae2a3cd11e854",
        "to": "0x0028644be9ab463f91f68015ffc3e3a35e473d76",
        "gas": "0x84d5",
        "value": "0x0",
        "data": "0xa9059cbb000000000000000000000000255e26065387de09436db52acc4ae2a3cd11e854000000000000000000000000000000000281fa059c9e179daafc123555555555",
        "nonce": "0x83",
        "accessList": []
      },
      "additionalContracts": [],
      "isFixedGasLimit": false
    }
  ],
  "receipts": [
    {
      "transactionHash": "0x859920edc172d3831d39febce2f206081020565855f457950eb66895a5f8a762",
      "transactionIndex": "0x6",
      "blockHash": "0x3caaf856bd2ca49bde06e94ba428cd5673249bf28fc2a448bb6d8e571c454d30",
      "blockNumber": "0x56a2e9",
      "from": "0x255e26065387de09436DB52AcC4aE2a3CD11E854",
      "to": "0x0028644bE9Ab463F91F68015FfC3E3a35e473D76",
      "cumulativeGasUsed": "0x444dd",
      "gasUsed": "0x602c",
      "contractAddress": null,
      "logs": [],
      "status": "0x1",
      "logsBloom": "0x00000000000000000000000000000000000000000000000000000000000000000000000000000000000000000000000000000000000000000000000000000000000000000000000000000000000000000000000000000000000000000000000000000000000000000000000000000000000000000000000000000000000000000000000000000000000000000000000000000000000000000000000000000000000000000000000000000000000000000000000000000000000000000000000000000000000000000000000000000000000000000000000000000000000000000000000000000000000000000000000000000000000000000000000000000000",
      "type": "0x2",
      "effectiveGasPrice": "0xb2d73e9d"
    }
  ],
  "libraries": [],
  "pending": [],
  "returns": {},
  "timestamp": 1712875180,
  "chain": 11155111,
  "multi": false,
  "commit": "c54d630"
}