{
  "transactions": [
    {
      "hash": "0x146fdf5e8a299045d3a07218ba54208d8e669b4c7fbe5d512064fda4d5b33ceb",
      "transactionType": "CALL",
      "contractName": null,
      "contractAddress": "0x0028644bE9Ab463F91F68015FfC3E3a35e473D76",
      "function": "transfer(address,uint256)",
      "arguments": [
        "0x255e26065387de09436DB52AcC4aE2a3CD11E854",
        "21"
      ],
      "transaction": {
        "type": "0x02",
        "from": "0x255e26065387de09436db52acc4ae2a3cd11e854",
        "to": "0x0028644be9ab463f91f68015ffc3e3a35e473d76",
        "gas": "0x83dd",
        "value": "0x0",
        "data": "0xa9059cbb000000000000000000000000255e26065387de09436db52acc4ae2a3cd11e8540000000000000000000000000000000000000000000000000000000000000015",
        "nonce": "0x88",
        "accessList": []
      },
      "additionalContracts": [],
      "isFixedGasLimit": false
    }
  ],
  "receipts": [
    {
      "transactionHash": "0x146fdf5e8a299045d3a07218ba54208d8e669b4c7fbe5d512064fda4d5b33ceb",
      "transactionIndex": "0xb",
      "blockHash": "0x9a101a9ed764715de4097db0bf1e0318afd90a9d9ce34c56183cf034c9ca9447",
      "blockNumber": "0x56a30f",
      "from": "0x255e26065387de09436DB52AcC4aE2a3CD11E854",
      "to": "0x0028644bE9Ab463F91F68015FfC3E3a35e473D76",
      "cumulativeGasUsed": "0x7be10",
      "gasUsed": "0x5f78",
      "contractAddress": null,
      "logs": [],
      "status": "0x1",
      "logsBloom": "0x00000000000000000000000000000000000000000000000000000000000000000000000000000000000000000000000000000000000000000000000000000000000000000000000000000000000000000000000000000000000000000000000000000000000000000000000000000000000000000000000000000000000000000000000000000000000000000000000000000000000000000000000000000000000000000000000000000000000000000000000000000000000000000000000000000000000000000000000000000000000000000000000000000000000000000000000000000000000000000000000000000000000000000000000000000000",
      "type": "0x2",
      "effectiveGasPrice": "0xb2d99e37"
    }
  ],
  "libraries": [],
  "pending": [],
  "returns": {},
  "timestamp": 1712875694,
  "chain": 11155111,
  "multi": false,
  "commit": "c54d630"
}