{
  "transactions": [
    {
      "hash": "0xf6126d39b5161c31c227c0aa7a314a521b0d9ead3fd1ee120995267b640a8567",
      "transactionType": "CALL",
      "contractName": null,
      "contractAddress": "0x0028644bE9Ab463F91F68015FfC3E3a35e473D76",
      "function": "transfer(address,uint256)",
      "arguments": [
        "0x255e26065387de09436DB52AcC4aE2a3CD11E854",
        "3333333333333333333333333333333333333"
      ],
      "transaction": {
        "type": "0x02",
        "from": "0x255e26065387de09436db52acc4ae2a3cd11e854",
        "to": "0x0028644be9ab463f91f68015ffc3e3a35e473d76",
        "gas": "0x84d5",
        "value": "0x0",
        "data": "0xa9059cbb000000000000000000000000255e26065387de09436db52acc4ae2a3cd11e854000000000000000000000000000000000281fa059c9e179daafc123555555555",
        "nonce": "0x85",
        "accessList": []
      },
      "additionalContracts": [],
      "isFixedGasLimit": false
    }
  ],
  "receipts": [
    {
      "transactionHash": "0xf6126d39b5161c31c227c0aa7a314a521b0d9ead3fd1ee120995267b640a8567",
      "transactionIndex": "0x5",
      "blockHash": "0xc3801095e5c88d8c557ab52e9d10daf9edc56381c21328403fa47cdf2b980216",
      "blockNumber": "0x56a2f4",
      "from": "0x255e26065387de09436DB52AcC4aE2a3CD11E854",
      "to": "0x0028644bE9Ab463F91F68015FfC3E3a35e473D76",
      "cumulativeGasUsed": "0x2bfa3",
      "gasUsed": "0x602c",
      "contractAddress": null,
      "logs": [],
      "status": "0x1",
      "logsBloom": "0x00000000000000000000000000000000000000000000000000000000000000000000000000000000000000000000000000000000000000000000000000000000000000000000000000000000000000000000000000000000000000000000000000000000000000000000000000000000000000000000000000000000000000000000000000000000000000000000000000000000000000000000000000000000000000000000000000000000000000000000000000000000000000000000000000000000000000000000000000000000000000000000000000000000000000000000000000000000000000000000000000000000000000000000000000000000",
      "type": "0x2",
      "effectiveGasPrice": "0xb2d6bc11"
    }
  ],
  "libraries": [],
  "pending": [],
  "returns": {},
  "timestamp": 1712875325,
  "chain": 11155111,
  "multi": false,
  "commit": "c54d630"
}