{
  "transactions": [
    {
      "hash": "0x9a7315abe43c2e5bf78291ba7133cf2f09b224f075017cf9cfb39a96d9dc4abe",
      "transactionType": "CREATE",
      "contractName": "PreservationExecutor",
      "contractAddress": "0xf4b5b968d13a91b989836ebcc63212179c1063ae",
      "function": null,
      "arguments": null,
      "transaction": {
        "from": "0x255e26065387de09436db52acc4ae2a3cd11e854",
        "gas": "0x1c48c",
        "value": "0x0",
        "input": "0x6080604052348015600e575f80fd5b5060a580601a5f395ff3fe6080604052348015600e575f80fd5b50600436106026575f3560e01c80633beb26c414602a575b5f80fd5b605760353660046059565b600280546001600160a01b0319166001600160a01b0392909216919091179055565b005b5f602082840312156068575f80fd5b503591905056fea2646970667358221220e0ff2be7ff619925a7afbbf5149aa5dcc54922af6af410cc4459e3e23fb0448964736f6c634300081a0033",
        "nonce": "0xf0",
        "chainId": "0xaa36a7"
      },
      "additionalContracts": [],
      "isFixedGasLimit": false
    },
    {
      "hash": "0x271cf89528fbd806d7ac6c624e69712dc297d4a023104ece5e1d3a2ab3aeab9f",
      "transactionType": "CALL",
      "contractName": null,
      "contractAddress": "0x338fe56b8e9cd19e6c584527047cfa8960f21135",
      "function": "setFirstTime(uint256)",
      "arguments": [
        "1397046334402327182110738267443364409147793630126"
      ],
      "transaction": {
        "from": "0x255e26065387de09436db52acc4ae2a3cd11e854",
        "to": "0x338fe56b8e9cd19e6c584527047cfa8960f21135",
        "gas": "0x912d",
        "value": "0x0",
        "input": "0xf1e02620000000000000000000000000f4b5b968d13a91b989836ebcc63212179c1063ae",
        "nonce": "0xf1",
        "chainId": "0xaa36a7"
      },
      "additionalContracts": [],
      "isFixedGasLimit": false
    },
    {
      "hash": "0xb9826d2a087ed3e655f84f564a891c490aea8758ede75fe135fbcb3443dd128d",
      "transactionType": "CALL",
      "contractName": null,
      "contractAddress": "0x338fe56b8e9cd19e6c584527047cfa8960f21135",
      "function": "setFirstTime(uint256)",
      "arguments": [
        "213332240988734936541837850074849316848723421268"
      ],
      "transaction": {
        "from": "0x255e26065387de09436db52acc4ae2a3cd11e854",
        "to": "0x338fe56b8e9cd19e6c584527047cfa8960f21135",
        "gas": "0x912d",
        "value": "0x0",
        "input": "0xf1e02620000000000000000000000000255e26065387de09436db52acc4ae2a3cd11e854",
        "nonce": "0xf2",
        "chainId": "0xaa36a7"
      },
      "additionalContracts": [],
      "isFixedGasLimit": false
    }
  ],
  "receipts": [],
  "libraries": [],
  "pending": [
    "0x9a7315abe43c2e5bf78291ba7133cf2f09b224f075017cf9cfb39a96d9dc4abe",
    "0x271cf89528fbd806d7ac6c624e69712dc297d4a023104ece5e1d3a2ab3aeab9f",
    "0xb9826d2a087ed3e655f84f564a891c490aea8758ede75fe135fbcb3443dd128d"
  ],
  "returns": {},
  "timestamp": 1722357107,
  "chain": 11155111,
  "commit": "7d1d2f3"
}