{
  "transactions": [
    {
      "hash": "0x2c124e69d553afc68a12d4c7cae1799b1c5babbd4de973e7bf2bf5ad678dde37",
      "transactionType": "CALL",
      "contractName": null,
      "contractAddress": "0x338fe56b8e9cd19e6c584527047cfa8960f21135",
      "function": "setFirstTime(uint256)",
      "arguments": [
        "1141504000568256018253402629179981750505554633025"
      ],
      "transaction": {
        "from": "0x255e26065387de09436db52acc4ae2a3cd11e854",
        "to": "0x338fe56b8e9cd19e6c584527047cfa8960f21135",
        "gas": "0xa1d9",
        "value": "0x0",
        "input": "0xf1e02620000000000000000000000000c7f2cf4845c6db0e1a1e91ed41bcd0fcc1b0e141",
        "nonce": "0xed",
        "chainId": "0xaa36a7"
      },
      "additionalContracts": [],
      "isFixedGasLimit": false
    },
    {
      "hash": "0xb8bf7f03bc1d122c8d92adde57c9c994fd4f858a56df20b43266557584a4d016",
      "transactionType": "CALL",
      "contractName": null,
      "contractAddress": "0x338fe56b8e9cd19e6c584527047cfa8960f21135",
      "function": "setFirstTime(uint256)",
      "arguments": [
        "213332240988734936541837850074849316848723421268"
      ],
      "transaction": {
        "from": "0x255e26065387de09436db52acc4ae2a3cd11e854",
        "to": "0x338fe56b8e9cd19e6c584527047cfa8960f21135",
        "gas": "0x912d",
        "value": "0x0",
        "input": "0xf1e02620000000000000000000000000255e26065387de09436db52acc4ae2a3cd11e854",
        "nonce": "0xee",
        "chainId": "0xaa36a7"
      },
      "additionalContracts": [],
      "isFixedGasLimit": false
    }
  ],
  "receipts": [
    {
      "status": "0x1",
      "cumulativeGasUsed": "0x1709cb4",
      "logs": [],
      "logsBloom": "0x00000000000000000000000000000000000000000000000000000000000000000000000000000000000000000000000000000000000000000000000000000000000000000000000000000000000000000000000000000000000000000000000000000000000000000000000000000000000000000000000000000000000000000000000000000000000000000000000000000000000000000000000000000000000000000000000000000000000000000000000000000000000000000000000000000000000000000000000000000000000000000000000000000000000000000000000000000000000000000000000000000000000000000000000000000000",
      "type": "0x2",
      "transactionHash": "0x2c124e69d553afc68a12d4c7cae1799b1c5babbd4de973e7bf2bf5ad678dde37",
      "transactionIndex": "0x92",
      "blockHash": "0x0da9918e3e5f85912e742b46ccc7b86aaa24275db132fd3dac40764f7348945e",
      "blockNumber": "0x61b9fe",
      "gasUsed": "0x752e",
      "effectiveGasPrice": "0x17fbefb38",
      "from": "0x255e26065387de09436db52acc4ae2a3cd11e854",
      "to": "0x338fe56b8e9cd19e6c584527047cfa8960f21135",
      "contractAddress": null
    },
    {
      "status": "0x1",
      "cumulativeGasUsed": "0x17105d0",
      "logs": [],
      "logsBloom": "0x00000000000000000000000000000000000000000000000000000000000000000000000000000000000000000000000000000000000000000000000000000000000000000000000000000000000000000000000000000000000000000000000000000000000000000000000000000000000000000000000000000000000000000000000000000000000000000000000000000000000000000000000000000000000000000000000000000000000000000000000000000000000000000000000000000000000000000000000000000000000000000000000000000000000000000000000000000000000000000000000000000000000000000000000000000000",
      "type": "0x2",
      "transactionHash": "0xb8bf7f03bc1d122c8d92adde57c9c994fd4f858a56df20b43266557584a4d016",
      "transactionIndex": "0x93",
      "blockHash": "0x0da9918e3e5f85912e742b46ccc7b86aaa24275db132fd3dac40764f7348945e",
      "blockNumber": "0x61b9fe",
      "gasUsed": "0x691c",
      "effectiveGasPrice": "0x17fbefb38",
      "from": "0x255e26065387de09436db52acc4ae2a3cd11e854",
      "to": "0x338fe56b8e9cd19e6c584527047cfa8960f21135",
      "contractAddress": null
    }
  ],
  "libraries": [],
  "pending": [],
  "returns": {},
  "timestamp": 1722356627,
  "chain": 11155111,
  "commit": "7d1d2f3"
}