{
  "transactions": [
    {
      "hash": "0x58eec58df6f20f53b335698cd0a1d9d1be3285dc30857cf8a5ae9d708d28e488",
      "transactionType": "CALL",
      "contractName": null,
      "contractAddress": "0x6bf9874ef02b5a495c72edab6a4d7b860b346696",
      "function": "setFirstTime(uint256)",
      "arguments": [
        "0"
      ],
      "transaction": {
        "from": "0x255e26065387de09436db52acc4ae2a3cd11e854",
        "to": "0x6bf9874ef02b5a495c72edab6a4d7b860b346696",
        "gas": "0x86a8",
        "value": "0x0",
        "input": "0xf1e026200000000000000000000000000000000000000000000000000000000000000000",
        "nonce": "0xe0",
        "chainId": "0xaa36a7"
      },
      "additionalContracts": [],
      "isFixedGasLimit": false
    },
    {
      "hash": "0xe4750319eadeaa6e09b0cf3117dae14f052982e8c949ab1e1b8a5df1956fcedf",
      "transactionType": "CALL",
      "contractName": null,
      "contractAddress": "0x6bf9874ef02b5a495c72edab6a4d7b860b346696",
      "function": "setSecondTime(uint256)",
      "arguments": [
        "916254998229007256859828901806428967993208873695290851328"
      ],
      "transaction": {
        "from": "0x255e26065387de09436db52acc4ae2a3cd11e854",
        "to": "0x6bf9874ef02b5a495c72edab6a4d7b860b346696",
        "gas": "0x10926",
        "value": "0x0",
        "input": "0x5bda8fa40000000000000000255e26065387de09436db52acc4ae2a3cd11e85400000000",
        "nonce": "0xe1",
        "chainId": "0xaa36a7"
      },
      "additionalContracts": [],
      "isFixedGasLimit": false
    }
  ],
  "receipts": [
    {
      "status": "0x1",
      "cumulativeGasUsed": "0x860f36",
      "logs": [],
      "logsBloom": "0x00000000000000000000000000000000000000000000000000000000000000000000000000000000000000000000000000000000000000000000000000000000000000000000000000000000000000000000000000000000000000000000000000000000000000000000000000000000000000000000000000000000000000000000000000000000000000000000000000000000000000000000000000000000000000000000000000000000000000000000000000000000000000000000000000000000000000000000000000000000000000000000000000000000000000000000000000000000000000000000000000000000000000000000000000000000",
      "type": "0x2",
      "transactionHash": "0x58eec58df6f20f53b335698cd0a1d9d1be3285dc30857cf8a5ae9d708d28e488",
      "transactionIndex": "0x3c",
      "blockHash": "0x7d0058746f671c1b094d784ddabd53b94d29ac5ba10deabe5aec5da6e53cb142",
      "blockNumber": "0x61b917",
      "gasUsed": "0x617e",
      "effectiveGasPrice": "0x37c5d07bc",
      "from": "0x255e26065387de09436db52acc4ae2a3cd11e854",
      "to": "0x6bf9874ef02b5a495c72edab6a4d7b860b346696",
      "contractAddress": null
    },
    {
      "status": "0x1",
      "cumulativeGasUsed": "0x86cf2d",
      "logs": [],
      "logsBloom": "0x00000000000000000000000000000000000000000000000000000000000000000000000000000000000000000000000000000000000000000000000000000000000000000000000000000000000000000000000000000000000000000000000000000000000000000000000000000000000000000000000000000000000000000000000000000000000000000000000000000000000000000000000000000000000000000000000000000000000000000000000000000000000000000000000000000000000000000000000000000000000000000000000000000000000000000000000000000000000000000000000000000000000000000000000000000000",
      "type": "0x2",
      "transactionHash": "0xe4750319eadeaa6e09b0cf3117dae14f052982e8c949ab1e1b8a5df1956fcedf",
      "transactionIndex": "0x3d",
      "blockHash": "0x7d0058746f671c1b094d784ddabd53b94d29ac5ba10deabe5aec5da6e53cb142",
      "blockNumber": "0x61b917",
      "gasUsed": "0xbff7",
      "effectiveGasPrice": "0x37c5d07bc",
      "from": "0x255e26065387de09436db52acc4ae2a3cd11e854",
      "to": "0x6bf9874ef02b5a495c72edab6a4d7b860b346696",
      "contractAddress": null
    }
  ],
  "libraries": [],
  "pending": [],
  "returns": {},
  "timestamp": 1722353345,
  "chain": 11155111,
  "commit": "7d1d2f3"
}