{
  "transactions": [
    {
      "hash": "0x3e80ac4887475c1b1b68b845b48375a185f930714de02c8cc6dd55f28ae097f8",
      "transactionType": "CALL",
      "contractName": null,
      "contractAddress": "0x6bf9874ef02b5a495c72edab6a4d7b860b346696",
      "function": "setFirstTime(uint256)",
      "arguments": [
        "0"
      ],
      "transaction": {
        "from": "0x255e26065387de09436db52acc4ae2a3cd11e854",
        "to": "0x6bf9874ef02b5a495c72edab6a4d7b860b346696",
        "gas": "0x8fe2",
        "value": "0x0",
        "input": "0xf1e026200000000000000000000000000000000000000000000000000000000000000000",
        "nonce": "0xe3",
        "chainId": "0xaa36a7"
      },
      "additionalContracts": [],
      "isFixedGasLimit": false
    },
    {
      "hash": "0x1d6b85dbb18124f284bcb12fde68f81dd0533dfb0ea6d0e81a69b398a03e6c89",
      "transactionType": "CALL",
      "contractName": null,
      "contractAddress": "0x6bf9874ef02b5a495c72edab6a4d7b860b346696",
      "function": "setSecondTime(uint256)",
      "arguments": [
        "916254998229007256859828901806428967993208873695290851328"
      ],
      "transaction": {
        "from": "0x255e26065387de09436db52acc4ae2a3cd11e854",
        "to": "0x6bf9874ef02b5a495c72edab6a4d7b860b346696",
        "gas": "0xa70f",
        "value": "0x0",
        "input": "0x5bda8fa40000000000000000255e26065387de09436db52acc4ae2a3cd11e85400000000",
        "nonce": "0xe4",
        "chainId": "0xaa36a7"
      },
      "additionalContracts": [],
      "isFixedGasLimit": false
    }
  ],
  "receipts": [
    {
      "status": "0x1",
      "cumulativeGasUsed": "0x7ce15a",
      "logs": [],
      "logsBloom": "0x00000000000000000000000000000000000000000000000000000000000000000000000000000000000000000000000000000000000000000000000000000000000000000000000000000000000000000000000000000000000000000000000000000000000000000000000000000000000000000000000000000000000000000000000000000000000000000000000000000000000000000000000000000000000000000000000000000000000000000000000000000000000000000000000000000000000000000000000000000000000000000000000000000000000000000000000000000000000000000000000000000000000000000000000000000000",
      "type": "0x2",
      "transactionHash": "0x3e80ac4887475c1b1b68b845b48375a185f930714de02c8cc6dd55f28ae097f8",
      "transactionIndex": "0x4c",
      "blockHash": "0x888b7974749d79fbc238bb28efe1b9d47d89f4f5f09556e29386d120887c1d00",
      "blockNumber": "0x61b94a",
      "gasUsed": "0x682c",
      "effectiveGasPrice": "0x688263073",
      "from": "0x255e26065387de09436db52acc4ae2a3cd11e854",
      "to": "0x6bf9874ef02b5a495c72edab6a4d7b860b346696",
      "contractAddress": null
    },
    {
      "status": "0x1",
      "cumulativeGasUsed": "0x7d5395",
      "logs": [],
      "logsBloom": "0x00000000000000000000000000000000000000000000000000000000000000000000000000000000000000000000000000000000000000000000000000000000000000000000000000000000000000000000000000000000000000000000000000000000000000000000000000000000000000000000000000000000000000000000000000000000000000000000000000000000000000000000000000000000000000000000000000000000000000000000000000000000000000000000000000000000000000000000000000000000000000000000000000000000000000000000000000000000000000000000000000000000000000000000000000000000",
      "type": "0x2",
      "transactionHash": "0x1d6b85dbb18124f284bcb12fde68f81dd0533dfb0ea6d0e81a69b398a03e6c89",
      "transactionIndex": "0x4d",
      "blockHash": "0x888b7974749d79fbc238bb28efe1b9d47d89f4f5f09556e29386d120887c1d00",
      "blockNumber": "0x61b94a",
      "gasUsed": "0x723b",
      "effectiveGasPrice": "0x688263073",
      "from": "0x255e26065387de09436db52acc4ae2a3cd11e854",
      "to": "0x6bf9874ef02b5a495c72edab6a4d7b860b346696",
      "contractAddress": null
    }
  ],
  "libraries": [],
  "pending": [],
  "returns": {},
  "timestamp": 1722354125,
  "chain": 11155111,
  "commit": "7d1d2f3"
}