{
  "transactions": [
    {
      "hash": "0xbde9795ff87ca5bb6e25b1772fc71fe93be20e447ea8879f233fba19ca2d6e93",
      "transactionType": "CALL",
      "contractName": null,
      "contractAddress": "0x3accaa35e3c33af0a46ab146b7637342ab551186",
      "function": "setFirstTime(uint256)",
      "arguments": [
        "1141504000568256018253402629179981750505554633025"
      ],
      "transaction": {
        "from": "0x255e26065387de09436db52acc4ae2a3cd11e854",
        "to": "0x3accaa35e3c33af0a46ab146b7637342ab551186",
        "gas": "0xa1d9",
        "value": "0x0",
        "input": "0xf1e02620000000000000000000000000c7f2cf4845c6db0e1a1e91ed41bcd0fcc1b0e141",
        "nonce": "0xe9",
        "chainId": "0xaa36a7"
      },
      "additionalContracts": [],
      "isFixedGasLimit": false
    },
    {
      "hash": "0x952705e0f8cfde88411249b52821124b6f94212295ea91eda3fb5e74bbb484f6",
      "transactionType": "CALL",
      "contractName": null,
      "contractAddress": "0x3accaa35e3c33af0a46ab146b7637342ab551186",
      "function": "setFirstTime(uint256)",
      "arguments": [
        "213332240988734936541837850074849316848723421268"
      ],
      "transaction": {
        "from": "0x255e26065387de09436db52acc4ae2a3cd11e854",
        "to": "0x3accaa35e3c33af0a46ab146b7637342ab551186",
        "gas": "0x912d",
        "value": "0x0",
        "input": "0xf1e02620000000000000000000000000255e26065387de09436db52acc4ae2a3cd11e854",
        "nonce": "0xea",
        "chainId": "0xaa36a7"
      },
      "additionalContracts": [],
      "isFixedGasLimit": false
    }
  ],
  "receipts": [
    {
      "status": "0x1",
      "cumulativeGasUsed": "0x8b8604",
      "logs": [],
      "logsBloom": "0x00000000000000000000000000000000000000000000000000000000000000000000000000000000000000000000000000000000000000000000000000000000000000000000000000000000000000000000000000000000000000000000000000000000000000000000000000000000000000000000000000000000000000000000000000000000000000000000000000000000000000000000000000000000000000000000000000000000000000000000000000000000000000000000000000000000000000000000000000000000000000000000000000000000000000000000000000000000000000000000000000000000000000000000000000000000",
      "type": "0x2",
      "transactionHash": "0xbde9795ff87ca5bb6e25b1772fc71fe93be20e447ea8879f233fba19ca2d6e93",
      "transactionIndex": "0x3f",
      "blockHash": "0x6ca7747cb976b444074ab03687ab3dacffe6bb9afe4a60916a06bf735b5fdb4d",
      "blockNumber": "0x61b9e4",
      "gasUsed": "0x752e",
      "effectiveGasPrice": "0x245929b3f",
      "from": "0x255e26065387de09436db52acc4ae2a3cd11e854",
      "to": "0x3accaa35e3c33af0a46ab146b7637342ab551186",
      "contractAddress": null
    },
    {
      "status": "0x1",
      "cumulativeGasUsed": "0x8bef20",
      "logs": [],
      "logsBloom": "0x00000000000000000000000000000000000000000000000000000000000000000000000000000000000000000000000000000000000000000000000000000000000000000000000000000000000000000000000000000000000000000000000000000000000000000000000000000000000000000000000000000000000000000000000000000000000000000000000000000000000000000000000000000000000000000000000000000000000000000000000000000000000000000000000000000000000000000000000000000000000000000000000000000000000000000000000000000000000000000000000000000000000000000000000000000000",
      "type": "0x2",
      "transactionHash": "0x952705e0f8cfde88411249b52821124b6f94212295ea91eda3fb5e74bbb484f6",
      "transactionIndex": "0x40",
      "blockHash": "0x6ca7747cb976b444074ab03687ab3dacffe6bb9afe4a60916a06bf735b5fdb4d",
      "blockNumber": "0x61b9e4",
      "gasUsed": "0x691c",
      "effectiveGasPrice": "0x245929b3f",
      "from": "0x255e26065387de09436db52acc4ae2a3cd11e854",
      "to": "0x3accaa35e3c33af0a46ab146b7637342ab551186",
      "contractAddress": null
    }
  ],
  "libraries": [],
  "pending": [],
  "returns": {},
  "timestamp": 1722356269,
  "chain": 11155111,
  "commit": "7d1d2f3"
}