{
  "transactions": [
    {
      "hash": "0x9c2423d98bb22a45d3672de1aefcf3fd37fa172b95f54cf42294dc81c73ef53c",
      "transactionType": "CALL",
      "contractName": null,
      "contractAddress": "0x34d38Ba0643d6eC16012dCC45E083961Ff8E673c",
      "function": "unlock(bytes32)",
      "arguments": [
        "0x412076657279207374726f6e67207365637265742070617373776f7264203a29"
      ],
      "transaction": {
        "type": "0x02",
        "from": "0x255e26065387de09436db52acc4ae2a3cd11e854",
        "to": "0x34d38ba0643d6ec16012dcc45e083961ff8e673c",
        "gas": "0x8242",
        "value": "0x0",
        "data": "0xec9b5b3a412076657279207374726f6e67207365637265742070617373776f7264203a29",
        "nonce": "0xa5",
        "accessList": []
      },
      "additionalContracts": [],
      "isFixedGasLimit": false
    }
  ],
  "receipts": [],
  "libraries": [],
  "pending": [
    "0x9c2423d98bb22a45d3672de1aefcf3fd37fa172b95f54cf42294dc81c73ef53c"
  ],
  "returns": {},
  "timestamp": 1713031714,
  "chain": 11155111,
  "multi": false,
  "commit": "f289fa4"
}