{
  "transactions": [
    {
      "hash": "0xe448895283728ec7f4e2320ac1367140072b5d8b4fe6722c0794b773c6dd916d",
      "transactionType": "CALL",
      "contractName": null,
      "contractAddress": "0x34d38Ba0643d6eC16012dCC45E083961Ff8E673c",
      "function": "unlock(bytes32)",
      "arguments": [
        "0x0000000000000000000000000000000000000000000000000000000000000000"
      ],
      "transaction": {
        "type": "0x02",
        "from": "0x255e26065387de09436db52acc4ae2a3cd11e854",
        "to": "0x34d38ba0643d6ec16012dcc45e083961ff8e673c",
        "gas": "0x7f03",
        "value": "0x0",
        "data": "0xec9b5b3a0000000000000000000000000000000000000000000000000000000000000000",
        "nonce": "0xa4",
        "accessList": []
      },
      "additionalContracts": [],
      "isFixedGasLimit": false
    }
  ],
  "receipts": [
    {
      "transactionHash": "0xe448895283728ec7f4e2320ac1367140072b5d8b4fe6722c0794b773c6dd916d",
      "transactionIndex": "0xb",
      "blockHash": "0x71cca9a833fd4a5e084f7972cc911bc4bba63634c67d2db894b021083d22150c",
      "blockNumber": "0x56d523",
      "from": "0x255e26065387de09436DB52AcC4aE2a3CD11E854",
      "to": "0x34d38Ba0643d6eC16012dCC45E083961Ff8E673c",
      "cumulativeGasUsed": "0xb9465",
      "gasUsed": "0x5bf5",
      "contractAddress": null,
      "logs": [],
      "status": "0x1",
      "logsBloom": "0x00000000000000000000000000000000000000000000000000000000000000000000000000000000000000000000000000000000000000000000000000000000000000000000000000000000000000000000000000000000000000000000000000000000000000000000000000000000000000000000000000000000000000000000000000000000000000000000000000000000000000000000000000000000000000000000000000000000000000000000000000000000000000000000000000000000000000000000000000000000000000000000000000000000000000000000000000000000000000000000000000000000000000000000000000000000",
      "type": "0x2",
      "effectiveGasPrice": "0xb2d91425"
    }
  ],
  "libraries": [],
  "pending": [],
  "returns": {},
  "timestamp": 1713030207,
  "chain": 11155111,
  "multi": false,
  "commit": "f289fa4"
}