{
  "transactions": [
    {
      "hash": "0xcdea677869ae5bd668cf0ac170c28d4d3e24fb3677cfc41c305b2bccab740499",
      "transactionType": "CALL",
      "contractName": null,
      "contractAddress": "0x34d38Ba0643d6eC16012dCC45E083961Ff8E673c",
      "function": "unlock(bytes32)",
      "arguments": [
        "0x0000000000000000000000000000000000000000000000000000000000000000"
      ],
      "transaction": {
        "type": "0x02",
        "from": "0x255e26065387de09436db52acc4ae2a3cd11e854",
        "to": "0x34d38ba0643d6ec16012dcc45e083961ff8e673c",
        "gas": "0x7f03",
        "value": "0x0",
        "data": "0xec9b5b3a0000000000000000000000000000000000000000000000000000000000000000",
        "nonce": "0xa2",
        "accessList": []
      },
      "additionalContracts": [],
      "isFixedGasLimit": false
    }
  ],
  "receipts": [
    {
      "transactionHash": "0xcdea677869ae5bd668cf0ac170c28d4d3e24fb3677cfc41c305b2bccab740499",
      "transactionIndex": "0x7",
      "blockHash": "0xce9ab752319bcdad4531f423f0c675afdace8689d1ce9a8ac7ecee1286fd79c6",
      "blockNumber": "0x56d498",
      "from": "0x255e26065387de09436DB52AcC4aE2a3CD11E854",
      "to": "0x34d38Ba0643d6eC16012dCC45E083961Ff8E673c",
      "cumulativeGasUsed": "0x3007f",
      "gasUsed": "0x5bf5",
      "contractAddress": null,
      "logs": [],
      "status": "0x1",
      "logsBloom": "0x00000000000000000000000000000000000000000000000000000000000000000000000000000000000000000000000000000000000000000000000000000000000000000000000000000000000000000000000000000000000000000000000000000000000000000000000000000000000000000000000000000000000000000000000000000000000000000000000000000000000000000000000000000000000000000000000000000000000000000000000000000000000000000000000000000000000000000000000000000000000000000000000000000000000000000000000000000000000000000000000000000000000000000000000000000000",
      "type": "0x2",
      "effectiveGasPrice": "0xb2d729f6"
    }
  ],
  "libraries": [],
  "pending": [],
  "returns": {},
  "timestamp": 1713028529,
  "chain": 11155111,
  "multi": false,
  "commit": "f289fa4"
}