{
  "transactions": [
    {
      "hash": "0x9c2423d98bb22a45d3672de1aefcf3fd37fa172b95f54cf42294dc81c73ef53c",
      "transactionType": "CALL",
      "contractName": null,
      "contractAddress": "0x34d38Ba0643d6eC16012dCC45E083961Ff8E673c",
      "function": "unlock(bytes32)",
      "arguments": [
        "0x412076657279207374726f6e67207365637265742070617373776f7264203a29"
      ],
      "transaction": {
        "type": "0x02",
        "from": "0x255e26065387de09436db52acc4ae2a3cd11e854",
        "to": "0x34d38ba0643d6ec16012dcc45e083961ff8e673c",
        "gas": "0x8242",
        "value": "0x0",
        "data": "0xec9b5b3a412076657279207374726f6e67207365637265742070617373776f7264203a29",
        "nonce": "0xa5",
        "accessList": []
      },
      "additionalContracts": [],
      "isFixedGasLimit": false
    }
  ],
  "receipts": [
    {
      "transactionHash": "0x9c2423d98bb22a45d3672de1aefcf3fd37fa172b95f54cf42294dc81c73ef53c",
      "transactionIndex": "0x7",
      "blockHash": "0xeae56bc89821c7733bb1b1c4a109a99756b40c4eeb084f9e58387acf7ce0cec9",
      "blockNumber": "0x56d5a2",
      "from": "0x255e26065387de09436DB52AcC4aE2a3CD11E854",
      "to": "0x34d38Ba0643d6eC16012dCC45E083961Ff8E673c",
      "cumulativeGasUsed": "0x3c828",
      "gasUsed": "0x5e4f",
      "contractAddress": null,
      "logs": [],
      "status": "0x1",
      "logsBloom": "0x00000000000000000000000000000000000000000000000000000000000000000000000000000000000000000000000000000000000000000000000000000000000000000000000000000000000000000000000000000000000000000000000000000000000000000000000000000000000000000000000000000000000000000000000000000000000000000000000000000000000000000000000000000000000000000000000000000000000000000000000000000000000000000000000000000000000000000000000000000000000000000000000000000000000000000000000000000000000000000000000000000000000000000000000000000000",
      "type": "0x2",
      "effectiveGasPrice": "0xb2d86eb0"
    }
  ],
  "libraries": [],
  "pending": [],
  "returns": {},
  "timestamp": 1713031734,
  "chain": 11155111,
  "multi": false,
  "commit": "f289fa4"
}