{
  "transactions": [
    {
      "hash": "0x3abe54382970214efe3df8e5dc5d1ac9d4d73aaab64272b8f30a4eecb76a181d",
      "transactionType": "CALL",
      "contractName": null,
      "contractAddress": "0x43010a057e755392e845896b8eda6068d7ce3c37",
      "function": "approve(address,uint256)",
      "arguments": [
        "0x3eB3C2916e1916A65AADbC29Ec3Be39e5B73f681",
        "1000000000000000000000000"
      ],
      "transaction": {
        "from": "0x255e26065387de09436db52acc4ae2a3cd11e854",
        "to": "0x43010a057e755392e845896b8eda6068d7ce3c37",
        "gas": "0xf9c8",
        "value": "0x0",
        "input": "0x095ea7b30000000000000000000000003eb3c2916e1916a65aadbc29ec3be39e5b73f68100000000000000000000000000000000000000000000d3c21bcecceda1000000",
        "nonce": "0xdb",
        "chainId": "0xaa36a7"
      },
      "additionalContracts": [],
      "isFixedGasLimit": false
    },
    {
      "hash": "0x486ecaeaf46d2ea004b59818a54b5777be3c356ee3b30046986ec7e90e24db0e",
      "transactionType": "CREATE",
      "contractName": "NaughtCoinExecutor",
      "contractAddress": "0x3eb3c2916e1916a65aadbc29ec3be39e5b73f681",
      "function": null,
      "arguments": [
        "0x43010A057E755392E845896b8Eda6068D7cE3C37"
      ],
      "transaction": {
        "from": "0x255e26065387de09436db52acc4ae2a3cd11e854",
        "gas": "0x349e7",
        "value": "0x0",
        "input": "0x6080604052348015600e575f80fd5b5060405161021d38038061021d833981016040819052602b91604e565b5f80546001600160a01b0319166001600160a01b03929092169190911790556079565b5f60208284031215605d575f80fd5b81516001600160a01b03811681146072575f80fd5b9392505050565b610197806100865f395ff3fe608060405234801561000f575f80fd5b5060043610610029575f3560e01c806363d9b7701461002d575b5f80fd5b610035610037565b005b5f546040516370a0823160e01b815233600482018190526001600160a01b03909216916323b872dd91309084906370a0823190602401602060405180830381865afa158015610088573d5f803e3d5ffd5b505050506040513d601f19601f820116820180604052508101906100ac9190610124565b6040516001600160e01b031960e086901b1681526001600160a01b03938416600482015292909116602483015260448201526064016020604051808303815f875af11580156100fd573d5f803e3d5ffd5b505050506040513d601f19601f82011682018060405250810190610121919061013b565b50565b5f60208284031215610134575f80fd5b5051919050565b5f6020828403121561014b575f80fd5b8151801515811461015a575f80fd5b939250505056fea2646970667358221220c60da691ac1dab7d206793c9bbda91fac4edb71bc28de5ca9d4bd6c13e6adb4a64736f6c634300081a003300000000000000000000000043010a057e755392e845896b8eda6068d7ce3c37",
        "nonce": "0xdc",
        "chainId": "0xaa36a7"
      },
      "additionalContracts": [],
      "isFixedGasLimit": false
    },
    {
      "hash": "0x5fa4b105e64dc1cd3582f6d240de19914fb614424e124179b464e7837d46578e",
      "transactionType": "CALL",
      "contractName": "NaughtCoinExecutor",
      "contractAddress": "0x3eb3c2916e1916a65aadbc29ec3be39e5b73f681",
      "function": "exploit()",
      "arguments": [],
      "transaction": {
        "from": "0x255e26065387de09436db52acc4ae2a3cd11e854",
        "to": "0x3eb3c2916e1916a65aadbc29ec3be39e5b73f681",
        "gas": "0x13a22",
        "value": "0x0",
        "input": "0x63d9b770",
        "nonce": "0xdd",
        "chainId": "0xaa36a7"
      },
      "additionalContracts": [],
      "isFixedGasLimit": false
    }
  ],
  "receipts": [
    {
      "status": "0x1",
      "cumulativeGasUsed": "0x6f05bc",
      "logs": [
        {
          "address": "0x43010a057e755392e845896b8eda6068d7ce3c37",
          "topics": [
            "0x8c5be1e5ebec7d5bd14f71427d1e84f3dd0314c0f7b2291e5b200ac8c7c3b925",
            "0x000000000000000000000000255e26065387de09436db52acc4ae2a3cd11e854",
            "0x0000000000000000000000003eb3c2916e1916a65aadbc29ec3be39e5b73f681"
          ],
          "data": "0x00000000000000000000000000000000000000000000d3c21bcecceda1000000",
          "blockHash": "0x75e1f52f5f9e4c8ef763a6aa2267bf8f2504de5ad90ef1342b6f545790b32170",
          "blockNumber": "0x6116e0",
          "transactionHash": "0x3abe54382970214efe3df8e5dc5d1ac9d4d73aaab64272b8f30a4eecb76a181d",
          "transactionIndex": "0x2b",
          "logIndex": "0x4e",
          "removed": false
        }
      ],
      "logsBloom": "0x00000000000000000000080000000000000000000000000000000000000000000000000000000000000000000000000000000000000000800000000000200000000000000000000000000000000000000200000000000000000000000000000000000000000000000000000000000000000000000000000000000000000000000000000000000000000080000000800000000000000000000000000000000000020000008000000000000001000000000000000000000000000000000000000000000000000000000000000000000000000000000000000000000000000000000010000000000000080000000000000008000000000000000000000000000000",
      "type": "0x2",
      "transactionHash": "0x3abe54382970214efe3df8e5dc5d1ac9d4d73aaab64272b8f30a4eecb76a181d",
      "transactionIndex": "0x2b",
      "blockHash": "0x75e1f52f5f9e4c8ef763a6aa2267bf8f2504de5ad90ef1342b6f545790b32170",
      "blockNumber": "0x6116e0",
      "gasUsed": "0xb4d7",
      "effectiveGasPrice": "0xbecccc30",
      "from": "0x255e26065387de09436db52acc4ae2a3cd11e854",
      "to": "0x43010a057e755392e845896b8eda6068d7ce3c37",
      "contractAddress": null
    },
    {
      "status": "0x1",
      "cumulativeGasUsed": "0x718d5a",
      "logs": [],
      "logsBloom": "0x00000000000000000000000000000000000000000000000000000000000000000000000000000000000000000000000000000000000000000000000000000000000000000000000000000000000000000000000000000000000000000000000000000000000000000000000000000000000000000000000000000000000000000000000000000000000000000000000000000000000000000000000000000000000000000000000000000000000000000000000000000000000000000000000000000000000000000000000000000000000000000000000000000000000000000000000000000000000000000000000000000000000000000000000000000000",
      "type": "0x2",
      "transactionHash": "0x486ecaeaf46d2ea004b59818a54b5777be3c356ee3b30046986ec7e90e24db0e",
      "transactionIndex": "0x2c",
      "blockHash": "0x75e1f52f5f9e4c8ef763a6aa2267bf8f2504de5ad90ef1342b6f545790b32170",
      "blockNumber": "0x6116e0",
      "gasUsed": "0x2879e",
      "effectiveGasPrice": "0xbecccc30",
      "from": "0x255e26065387de09436db52acc4ae2a3cd11e854",
      "to": null,
      "contractAddress": "0x3eb3c2916e1916a65aadbc29ec3be39e5b73f681"
    },
    {
      "status": "0x1",
      "cumulativeGasUsed": "0x726425",
      "logs": [
        {
          "address": "0x43010a057e755392e845896b8eda6068d7ce3c37",
          "topics": [
            "0x8c5be1e5ebec7d5bd14f71427d1e84f3dd0314c0f7b2291e5b200ac8c7c3b925",
            "0x000000000000000000000000255e26065387de09436db52acc4ae2a3cd11e854",
            "0x0000000000000000000000003eb3c2916e1916a65aadbc29ec3be39e5b73f681"
          ],
          "data": "0x0000000000000000000000000000000000000000000000000000000000000000",
          "blockHash": "0x75e1f52f5f9e4c8ef763a6aa2267bf8f2504de5ad90ef1342b6f545790b32170",
          "blockNumber": "0x6116e0",
          "transactionHash": "0x5fa4b105e64dc1cd3582f6d240de19914fb614424e124179b464e7837d46578e",
          "transactionIndex": "0x2d",
          "logIndex": "0x4f",
          "removed": false
        },
        {
          "address": "0x43010a057e755392e845896b8eda6068d7ce3c37",
          "topics": [
            "0xddf252ad1be2c89b69c2b068fc378daa952ba7f163c4a11628f55a4df523b3ef",
            "0x000000000000000000000000255e26065387de09436db52acc4ae2a3cd11e854",
            "0x0000000000000000000000003eb3c2916e1916a65aadbc29ec3be39e5b73f681"
          ],
          "data": "0x00000000000000000000000000000000000000000000d3c21bcecceda1000000",
          "blockHash": "0x75e1f52f5f9e4c8ef763a6aa2267bf8f2504de5ad90ef1342b6f545790b32170",
          "blockNumber": "0x6116e0",
          "transactionHash": "0x5fa4b105e64dc1cd3582f6d240de19914fb614424e124179b464e7837d46578e",
          "transactionIndex": "0x2d",
          "logIndex": "0x50",
          "removed": false
        }
      ],
      "logsBloom": "0x00000000000000000000080000000000000000000000000000000000000000000000000000000000000000000000000000000000000000800000000000200000000000000000000000000008000000000200000000000000000000000000000000000000000000000000000000000000000000000000000000000010000000000000000000000000000080000000800000000000000000000000000000000000020000008000000000000001000000000000000000000000000000000000000000000002000000000000000000000000000000000000000000000000000000000010000000000000080000000000000008000000000000000000000000000000",
      "type": "0x2",
      "transactionHash": "0x5fa4b105e64dc1cd3582f6d240de19914fb614424e124179b464e7837d46578e",
      "transactionIndex": "0x2d",
      "blockHash": "0x75e1f52f5f9e4c8ef763a6aa2267bf8f2504de5ad90ef1342b6f545790b32170",
      "blockNumber": "0x6116e0",
      "gasUsed": "0xd6cb",
      "effectiveGasPrice": "0xbecccc30",
      "from": "0x255e26065387de09436db52acc4ae2a3cd11e854",
      "to": "0x3eb3c2916e1916a65aadbc29ec3be39e5b73f681",
      "contractAddress": null
    }
  ],
  "libraries": [],
  "pending": [],
  "returns": {},
  "timestamp": 1721752238,
  "chain": 11155111,
  "commit": "f2e6150"
}